{
  "_format": "hh-sol-artifact-1",
  "contractName": "DeixaXastroCollection",
  "sourceName": "contracts/DeixaXastroCollection.sol",
  "abi": [
    {
      "inputs": [
        {
          "internalType": "string",
          "name": "_tokenName",
          "type": "string"
        },
        {
          "internalType": "string",
          "name": "_tokenSymbol",
          "type": "string"
        },
        {
          "internalType": "uint256",
          "name": "_cost",
          "type": "uint256"
        },
        {
          "internalType": "uint256",
          "name": "_maxSupply",
          "type": "uint256"
        },
        {
          "internalType": "uint256",
          "name": "_maxMintAmountPerTx",
          "type": "uint256"
        },
        {
          "internalType": "string",
          "name": "_hiddenMetadataUri",
          "type": "string"
        },
        {
          "internalType": "string",
          "name": "_contractMetadataUri",
          "type": "string"
        }
      ],
      "stateMutability": "nonpayable",
      "type": "constructor"
    },
    {
      "inputs": [],
      "name": "ApprovalCallerNotOwnerNorApproved",
      "type": "error"
    },
    {
      "inputs": [],
      "name": "ApprovalQueryForNonexistentToken",
      "type": "error"
    },
    {
      "inputs": [],
      "name": "ApprovalToCurrentOwner",
      "type": "error"
    },
    {
      "inputs": [],
      "name": "ApproveToCaller",
      "type": "error"
    },
    {
      "inputs": [],
      "name": "BalanceQueryForZeroAddress",
      "type": "error"
    },
    {
      "inputs": [],
      "name": "MintToZeroAddress",
      "type": "error"
    },
    {
      "inputs": [],
      "name": "MintZeroQuantity",
      "type": "error"
    },
    {
      "inputs": [],
      "name": "OwnerQueryForNonexistentToken",
      "type": "error"
    },
    {
      "inputs": [],
      "name": "TransferCallerNotOwnerNorApproved",
      "type": "error"
    },
    {
      "inputs": [],
      "name": "TransferFromIncorrectOwner",
      "type": "error"
    },
    {
      "inputs": [],
      "name": "TransferToNonERC721ReceiverImplementer",
      "type": "error"
    },
    {
      "inputs": [],
      "name": "TransferToZeroAddress",
      "type": "error"
    },
    {
      "inputs": [],
      "name": "URIQueryForNonexistentToken",
      "type": "error"
    },
    {
      "anonymous": false,
      "inputs": [
        {
          "indexed": true,
          "internalType": "address",
          "name": "owner",
          "type": "address"
        },
        {
          "indexed": true,
          "internalType": "address",
          "name": "approved",
          "type": "address"
        },
        {
          "indexed": true,
          "internalType": "uint256",
          "name": "tokenId",
          "type": "uint256"
        }
      ],
      "name": "Approval",
      "type": "event"
    },
    {
      "anonymous": false,
      "inputs": [
        {
          "indexed": true,
          "internalType": "address",
          "name": "owner",
          "type": "address"
        },
        {
          "indexed": true,
          "internalType": "address",
          "name": "operator",
          "type": "address"
        },
        {
          "indexed": false,
          "internalType": "bool",
          "name": "approved",
          "type": "bool"
        }
      ],
      "name": "ApprovalForAll",
      "type": "event"
    },
    {
      "anonymous": false,
      "inputs": [
        {
          "indexed": true,
          "internalType": "address",
          "name": "previousOwner",
          "type": "address"
        },
        {
          "indexed": true,
          "internalType": "address",
          "name": "newOwner",
          "type": "address"
        }
      ],
      "name": "OwnershipTransferred",
      "type": "event"
    },
    {
      "anonymous": false,
      "inputs": [
        {
          "indexed": true,
          "internalType": "address",
          "name": "from",
          "type": "address"
        },
        {
          "indexed": true,
          "internalType": "address",
          "name": "to",
          "type": "address"
        },
        {
          "indexed": true,
          "internalType": "uint256",
          "name": "tokenId",
          "type": "uint256"
        }
      ],
      "name": "Transfer",
      "type": "event"
    },
    {
      "inputs": [
        {
          "internalType": "address",
          "name": "to",
          "type": "address"
        },
        {
          "internalType": "uint256",
          "name": "tokenId",
          "type": "uint256"
        }
      ],
      "name": "approve",
      "outputs": [],
      "stateMutability": "nonpayable",
      "type": "function"
    },
    {
      "inputs": [
        {
          "internalType": "address",
          "name": "owner",
          "type": "address"
        }
      ],
      "name": "balanceOf",
      "outputs": [
        {
          "internalType": "uint256",
          "name": "",
          "type": "uint256"
        }
      ],
      "stateMutability": "view",
      "type": "function"
    },
    {
      "inputs": [],
      "name": "contractMetadataUri",
      "outputs": [
        {
          "internalType": "string",
          "name": "",
          "type": "string"
        }
      ],
      "stateMutability": "view",
      "type": "function"
    },
    {
      "inputs": [],
      "name": "contractURI",
      "outputs": [
        {
          "internalType": "string",
          "name": "",
          "type": "string"
        }
      ],
      "stateMutability": "view",
      "type": "function"
    },
    {
      "inputs": [],
      "name": "cost",
      "outputs": [
        {
          "internalType": "uint256",
          "name": "",
          "type": "uint256"
        }
      ],
      "stateMutability": "view",
      "type": "function"
    },
    {
      "inputs": [
        {
          "internalType": "address",
          "name": "",
          "type": "address"
        }
      ],
      "name": "freeListClaimed",
      "outputs": [
        {
          "internalType": "bool",
          "name": "",
          "type": "bool"
        }
      ],
      "stateMutability": "view",
      "type": "function"
    },
    {
      "inputs": [],
      "name": "freeListMerkleRoot",
      "outputs": [
        {
          "internalType": "bytes32",
          "name": "",
          "type": "bytes32"
        }
      ],
      "stateMutability": "view",
      "type": "function"
    },
    {
      "inputs": [
        {
          "internalType": "uint256",
          "name": "_mintAmount",
          "type": "uint256"
        },
        {
          "internalType": "string",
          "name": "_promotionCode",
          "type": "string"
        },
        {
          "internalType": "bytes32[]",
          "name": "_merkleProof",
          "type": "bytes32[]"
        }
      ],
      "name": "freeListMint",
      "outputs": [],
      "stateMutability": "payable",
      "type": "function"
    },
    {
      "inputs": [],
      "name": "freeListMintEnabled",
      "outputs": [
        {
          "internalType": "bool",
          "name": "",
          "type": "bool"
        }
      ],
      "stateMutability": "view",
      "type": "function"
    },
    {
      "inputs": [
        {
          "internalType": "uint256",
          "name": "tokenId",
          "type": "uint256"
        }
      ],
      "name": "getApproved",
      "outputs": [
        {
          "internalType": "address",
          "name": "",
          "type": "address"
        }
      ],
      "stateMutability": "view",
      "type": "function"
    },
    {
      "inputs": [
        {
          "internalType": "address",
          "name": "",
          "type": "address"
        }
      ],
      "name": "goldListClaimed",
      "outputs": [
        {
          "internalType": "bool",
          "name": "",
          "type": "bool"
        }
      ],
      "stateMutability": "view",
      "type": "function"
    },
    {
      "inputs": [],
      "name": "goldListMerkleRoot",
      "outputs": [
        {
          "internalType": "bytes32",
          "name": "",
          "type": "bytes32"
        }
      ],
      "stateMutability": "view",
      "type": "function"
    },
    {
      "inputs": [
        {
          "internalType": "uint256",
          "name": "_mintAmount",
          "type": "uint256"
        },
        {
          "internalType": "string",
          "name": "_promotionCode",
          "type": "string"
        },
        {
          "internalType": "bytes32[]",
          "name": "_merkleProof",
          "type": "bytes32[]"
        }
      ],
      "name": "goldListMint",
      "outputs": [],
      "stateMutability": "payable",
      "type": "function"
    },
    {
      "inputs": [],
      "name": "goldListMintEnabled",
      "outputs": [
        {
          "internalType": "bool",
          "name": "",
          "type": "bool"
        }
      ],
      "stateMutability": "view",
      "type": "function"
    },
    {
      "inputs": [],
      "name": "hiddenMetadataUri",
      "outputs": [
        {
          "internalType": "string",
          "name": "",
          "type": "string"
        }
      ],
      "stateMutability": "view",
      "type": "function"
    },
    {
      "inputs": [
        {
          "internalType": "address",
          "name": "owner",
          "type": "address"
        },
        {
          "internalType": "address",
          "name": "operator",
          "type": "address"
        }
      ],
      "name": "isApprovedForAll",
      "outputs": [
        {
          "internalType": "bool",
          "name": "",
          "type": "bool"
        }
      ],
      "stateMutability": "view",
      "type": "function"
    },
    {
      "inputs": [],
      "name": "maxMintAmountPerTx",
      "outputs": [
        {
          "internalType": "uint256",
          "name": "",
          "type": "uint256"
        }
      ],
      "stateMutability": "view",
      "type": "function"
    },
    {
      "inputs": [],
      "name": "maxSupply",
      "outputs": [
        {
          "internalType": "uint256",
          "name": "",
          "type": "uint256"
        }
      ],
      "stateMutability": "view",
      "type": "function"
    },
    {
      "inputs": [
        {
          "internalType": "uint256",
          "name": "_mintAmount",
          "type": "uint256"
        },
        {
          "internalType": "string",
          "name": "_promotionCode",
          "type": "string"
        }
      ],
      "name": "mint",
      "outputs": [],
      "stateMutability": "payable",
      "type": "function"
    },
    {
      "inputs": [
        {
          "internalType": "address[]",
          "name": "addresses",
          "type": "address[]"
        },
        {
          "internalType": "uint256[]",
          "name": "amounts",
          "type": "uint256[]"
        }
      ],
      "name": "mintBatch",
      "outputs": [],
      "stateMutability": "nonpayable",
      "type": "function"
    },
    {
      "inputs": [
        {
          "internalType": "uint256",
          "name": "_mintAmount",
          "type": "uint256"
        },
        {
          "internalType": "address",
          "name": "_receiver",
          "type": "address"
        }
      ],
      "name": "mintForAddress",
      "outputs": [],
      "stateMutability": "nonpayable",
      "type": "function"
    },
    {
      "inputs": [],
      "name": "mintLimit",
      "outputs": [
        {
          "internalType": "uint256",
          "name": "",
          "type": "uint256"
        }
      ],
      "stateMutability": "view",
      "type": "function"
    },
    {
      "inputs": [],
      "name": "name",
      "outputs": [
        {
          "internalType": "string",
          "name": "",
          "type": "string"
        }
      ],
      "stateMutability": "view",
      "type": "function"
    },
    {
      "inputs": [],
      "name": "owner",
      "outputs": [
        {
          "internalType": "address",
          "name": "",
          "type": "address"
        }
      ],
      "stateMutability": "view",
      "type": "function"
    },
    {
      "inputs": [
        {
          "internalType": "uint256",
          "name": "tokenId",
          "type": "uint256"
        }
      ],
      "name": "ownerOf",
      "outputs": [
        {
          "internalType": "address",
          "name": "",
          "type": "address"
        }
      ],
      "stateMutability": "view",
      "type": "function"
    },
    {
      "inputs": [],
      "name": "paused",
      "outputs": [
        {
          "internalType": "bool",
          "name": "",
          "type": "bool"
        }
      ],
      "stateMutability": "view",
      "type": "function"
    },
    {
      "inputs": [],
      "name": "preSaleMintEnabled",
      "outputs": [
        {
          "internalType": "bool",
          "name": "",
          "type": "bool"
        }
      ],
      "stateMutability": "view",
      "type": "function"
    },
    {
      "inputs": [],
      "name": "promotionCodeCount",
      "outputs": [
        {
          "internalType": "uint256",
          "name": "",
          "type": "uint256"
        }
      ],
      "stateMutability": "view",
      "type": "function"
    },
    {
      "inputs": [
        {
          "internalType": "string",
          "name": "",
          "type": "string"
        }
      ],
      "name": "promotionCodeToSales",
      "outputs": [
        {
          "internalType": "uint256",
          "name": "",
          "type": "uint256"
        }
      ],
      "stateMutability": "view",
      "type": "function"
    },
    {
      "inputs": [
        {
          "internalType": "uint256",
          "name": "",
          "type": "uint256"
        }
      ],
      "name": "promotionCodes",
      "outputs": [
        {
          "internalType": "string",
          "name": "",
          "type": "string"
        }
      ],
      "stateMutability": "view",
      "type": "function"
    },
    {
      "inputs": [],
      "name": "released",
      "outputs": [
        {
          "internalType": "bool",
          "name": "",
          "type": "bool"
        }
      ],
      "stateMutability": "view",
      "type": "function"
    },
    {
      "inputs": [],
      "name": "renounceOwnership",
      "outputs": [],
      "stateMutability": "nonpayable",
      "type": "function"
    },
    {
      "inputs": [],
      "name": "revealed",
      "outputs": [
        {
          "internalType": "bool",
          "name": "",
          "type": "bool"
        }
      ],
      "stateMutability": "view",
      "type": "function"
    },
    {
      "inputs": [
        {
          "internalType": "address",
          "name": "from",
          "type": "address"
        },
        {
          "internalType": "address",
          "name": "to",
          "type": "address"
        },
        {
          "internalType": "uint256",
          "name": "tokenId",
          "type": "uint256"
        }
      ],
      "name": "safeTransferFrom",
      "outputs": [],
      "stateMutability": "nonpayable",
      "type": "function"
    },
    {
      "inputs": [
        {
          "internalType": "address",
          "name": "from",
          "type": "address"
        },
        {
          "internalType": "address",
          "name": "to",
          "type": "address"
        },
        {
          "internalType": "uint256",
          "name": "tokenId",
          "type": "uint256"
        },
        {
          "internalType": "bytes",
          "name": "_data",
          "type": "bytes"
        }
      ],
      "name": "safeTransferFrom",
      "outputs": [],
      "stateMutability": "nonpayable",
      "type": "function"
    },
    {
      "inputs": [
        {
          "internalType": "address",
          "name": "operator",
          "type": "address"
        },
        {
          "internalType": "bool",
          "name": "approved",
          "type": "bool"
        }
      ],
      "name": "setApprovalForAll",
      "outputs": [],
      "stateMutability": "nonpayable",
      "type": "function"
    },
    {
      "inputs": [
        {
          "internalType": "string",
          "name": "_contractMetadataUri",
          "type": "string"
        }
      ],
      "name": "setContractMetadataUri",
      "outputs": [],
      "stateMutability": "nonpayable",
      "type": "function"
    },
    {
      "inputs": [
        {
          "internalType": "uint256",
          "name": "_cost",
          "type": "uint256"
        }
      ],
      "name": "setCost",
      "outputs": [],
      "stateMutability": "nonpayable",
      "type": "function"
    },
    {
      "inputs": [
        {
          "internalType": "bytes32",
          "name": "_merkleRoot",
          "type": "bytes32"
        }
      ],
      "name": "setFreeListMerkleRoot",
      "outputs": [],
      "stateMutability": "nonpayable",
      "type": "function"
    },
    {
      "inputs": [
        {
          "internalType": "bool",
          "name": "_state",
          "type": "bool"
        }
      ],
      "name": "setFreeListMintEnabled",
      "outputs": [],
      "stateMutability": "nonpayable",
      "type": "function"
    },
    {
      "inputs": [
        {
          "internalType": "bytes32",
          "name": "_merkleRoot",
          "type": "bytes32"
        }
      ],
      "name": "setGoldListMerkleRoot",
      "outputs": [],
      "stateMutability": "nonpayable",
      "type": "function"
    },
    {
      "inputs": [
        {
          "internalType": "bool",
          "name": "_state",
          "type": "bool"
        }
      ],
      "name": "setGoldListMintEnabled",
      "outputs": [],
      "stateMutability": "nonpayable",
      "type": "function"
    },
    {
      "inputs": [
        {
          "internalType": "string",
          "name": "_hiddenMetadataUri",
          "type": "string"
        }
      ],
      "name": "setHiddenMetadataUri",
      "outputs": [],
      "stateMutability": "nonpayable",
      "type": "function"
    },
    {
      "inputs": [
        {
          "internalType": "uint256",
          "name": "_maxMintAmountPerTx",
          "type": "uint256"
        }
      ],
      "name": "setMaxMintAmountPerTx",
      "outputs": [],
      "stateMutability": "nonpayable",
      "type": "function"
    },
    {
      "inputs": [
        {
          "internalType": "uint256",
          "name": "_mintLimit",
          "type": "uint256"
        }
      ],
      "name": "setMintLimit",
      "outputs": [],
      "stateMutability": "nonpayable",
      "type": "function"
    },
    {
      "inputs": [
        {
          "internalType": "bool",
          "name": "_state",
          "type": "bool"
        }
      ],
      "name": "setPaused",
      "outputs": [],
      "stateMutability": "nonpayable",
      "type": "function"
    },
    {
      "inputs": [
        {
          "internalType": "bool",
          "name": "_state",
          "type": "bool"
        }
      ],
      "name": "setPreSaleMintEnabled",
      "outputs": [],
      "stateMutability": "nonpayable",
      "type": "function"
    },
    {
      "inputs": [
        {
          "internalType": "bool",
          "name": "_state",
          "type": "bool"
        }
      ],
      "name": "setReleased",
      "outputs": [],
      "stateMutability": "nonpayable",
      "type": "function"
    },
    {
      "inputs": [
        {
          "internalType": "bool",
          "name": "_state",
          "type": "bool"
        }
      ],
      "name": "setRevealed",
      "outputs": [],
      "stateMutability": "nonpayable",
      "type": "function"
    },
    {
      "inputs": [
        {
          "internalType": "uint256",
          "name": "_cost",
          "type": "uint256"
        },
        {
          "internalType": "uint256",
          "name": "_maxMintAmountPerTx",
          "type": "uint256"
        },
        {
          "internalType": "uint256",
          "name": "_mintLimit",
          "type": "uint256"
        }
      ],
      "name": "setSaleParameters",
      "outputs": [],
      "stateMutability": "nonpayable",
      "type": "function"
    },
    {
      "inputs": [
        {
          "internalType": "string",
          "name": "_uriPrefix",
          "type": "string"
        }
      ],
      "name": "setUriPrefix",
      "outputs": [],
      "stateMutability": "nonpayable",
      "type": "function"
    },
    {
      "inputs": [
        {
          "internalType": "string",
          "name": "_uriSuffix",
          "type": "string"
        }
      ],
      "name": "setUriSuffix",
      "outputs": [],
      "stateMutability": "nonpayable",
      "type": "function"
    },
    {
      "inputs": [
        {
          "internalType": "bytes4",
          "name": "interfaceId",
          "type": "bytes4"
        }
      ],
      "name": "supportsInterface",
      "outputs": [
        {
          "internalType": "bool",
          "name": "",
          "type": "bool"
        }
      ],
      "stateMutability": "view",
      "type": "function"
    },
    {
      "inputs": [],
      "name": "symbol",
      "outputs": [
        {
          "internalType": "string",
          "name": "",
          "type": "string"
        }
      ],
      "stateMutability": "view",
      "type": "function"
    },
    {
      "inputs": [
        {
          "internalType": "uint256",
          "name": "_tokenId",
          "type": "uint256"
        }
      ],
      "name": "tokenURI",
      "outputs": [
        {
          "internalType": "string",
          "name": "",
          "type": "string"
        }
      ],
      "stateMutability": "view",
      "type": "function"
    },
    {
      "inputs": [],
      "name": "totalSupply",
      "outputs": [
        {
          "internalType": "uint256",
          "name": "",
          "type": "uint256"
        }
      ],
      "stateMutability": "view",
      "type": "function"
    },
    {
      "inputs": [
        {
          "internalType": "address",
          "name": "from",
          "type": "address"
        },
        {
          "internalType": "address",
          "name": "to",
          "type": "address"
        },
        {
          "internalType": "uint256",
          "name": "tokenId",
          "type": "uint256"
        }
      ],
      "name": "transferFrom",
      "outputs": [],
      "stateMutability": "nonpayable",
      "type": "function"
    },
    {
      "inputs": [
        {
          "internalType": "address",
          "name": "newOwner",
          "type": "address"
        }
      ],
      "name": "transferOwnership",
      "outputs": [],
      "stateMutability": "nonpayable",
      "type": "function"
    },
    {
      "inputs": [],
      "name": "uriPrefix",
      "outputs": [
        {
          "internalType": "string",
          "name": "",
          "type": "string"
        }
      ],
      "stateMutability": "view",
      "type": "function"
    },
    {
      "inputs": [],
      "name": "uriSuffix",
      "outputs": [
        {
          "internalType": "string",
          "name": "",
          "type": "string"
        }
      ],
      "stateMutability": "view",
      "type": "function"
    },
    {
      "inputs": [
        {
          "internalType": "address",
          "name": "_owner",
          "type": "address"
        }
      ],
      "name": "walletOfOwner",
      "outputs": [
        {
          "internalType": "uint256[]",
          "name": "",
          "type": "uint256[]"
        }
      ],
      "stateMutability": "view",
      "type": "function"
    },
    {
      "inputs": [],
      "name": "withdraw",
      "outputs": [],
      "stateMutability": "nonpayable",
      "type": "function"
    }
  ],
  "bytecode": "0x60a06040819052600060808190526200001b91600e916200022a565b5060408051808201909152600580825264173539b7b760d91b60209092019182526200004a91600f916200022a565b506016805465ffffffffffff191660011790553480156200006a57600080fd5b506040516200362f3803806200362f8339810160408190526200008d916200039d565b865187908790620000a69060029060208501906200022a565b508051620000bc9060039060208401906200022a565b5050600160005550620000cf3362000117565b6001600955620000df8562000169565b60138490556014849055620000f48362000178565b620000ff8262000187565b6200010a81620001aa565b50505050505050620004b0565b600880546001600160a01b038381166001600160a01b0319831681179093556040519116919082907f8be0079c531659141344cd1fd0a4f28419497f9722a3daafe3b4186f6b6457e090600090a35050565b62000173620001c9565b601255565b62000182620001c9565b601555565b62000191620001c9565b8051620001a69060109060208401906200022a565b5050565b620001b4620001c9565b8051620001a69060119060208401906200022a565b6008546001600160a01b03163314620002285760405162461bcd60e51b815260206004820181905260248201527f4f776e61626c653a2063616c6c6572206973206e6f7420746865206f776e6572604482015260640160405180910390fd5b565b828054620002389062000473565b90600052602060002090601f0160209004810192826200025c5760008555620002a7565b82601f106200027757805160ff1916838001178555620002a7565b82800160010185558215620002a7579182015b82811115620002a75782518255916020019190600101906200028a565b50620002b5929150620002b9565b5090565b5b80821115620002b55760008155600101620002ba565b634e487b7160e01b600052604160045260246000fd5b600082601f830112620002f857600080fd5b81516001600160401b0380821115620003155762000315620002d0565b604051601f8301601f19908116603f01168101908282118183101715620003405762000340620002d0565b816040528381526020925086838588010111156200035d57600080fd5b600091505b8382101562000381578582018301518183018401529082019062000362565b83821115620003935760008385830101525b9695505050505050565b600080600080600080600060e0888a031215620003b957600080fd5b87516001600160401b0380821115620003d157600080fd5b620003df8b838c01620002e6565b985060208a0151915080821115620003f657600080fd5b620004048b838c01620002e6565b975060408a0151965060608a0151955060808a0151945060a08a01519150808211156200043057600080fd5b6200043e8b838c01620002e6565b935060c08a01519150808211156200045557600080fd5b50620004648a828b01620002e6565b91505092959891949750929550565b600181811c908216806200048857607f821691505b60208210811415620004aa57634e487b7160e01b600052602260045260246000fd5b50919050565b61316f80620004c06000396000f3fe6080604052600436106103ad5760003560e01c80637ec4a659116101e7578063c87b56dd1161010d578063e8a3d485116100a0578063efbd73f41161006f578063efbd73f414610ad5578063f2fde38b14610af5578063f89a01a814610b15578063fb0220c214610b3557600080fd5b8063e8a3d48514610a1f578063e985e9c514610a34578063eadfec2914610a7d578063ef351f6c14610ab557600080fd5b8063d612620b116100dc578063d612620b1461098f578063e0a80853146109bf578063e249b7ce146109df578063e8724937146109ff57600080fd5b8063c87b56dd14610919578063d1fea3d514610939578063d242310514610959578063d5abeb011461097957600080fd5b80639e6a1d7d11610185578063b88d4fde11610154578063b88d4fde146108a4578063ba66a5f9146108c4578063c280c88e146108d9578063c2840944146108f957600080fd5b80639e6a1d7d1461082f578063a22cb4651461084f578063a45ba8e71461086f578063b071401b1461088457600080fd5b80639579e688116101c15780639579e688146107b457806395d89b41146107e457806396132521146107f9578063996517cf1461081957600080fd5b80637ec4a659146107605780638da5cb5b1461078057806394354fd01461079e57600080fd5b8063438b6300116102d75780636352211e1161026a57806377058ed01161023957806377058ed01461070257806377097fc8146107175780637c88e3d91461072a5780637d4fb8191461074a57600080fd5b80636352211e1461069a5780636a1a7e1e146106ba57806370a08231146106cd578063715018a6146106ed57600080fd5b806351830227116102a657806351830227146106375780635503a0e8146106565780635c975abb1461066b57806362b99ad41461068557600080fd5b8063438b6300146105aa57806344a0d68a146105d75780634fdd43cb146105f757806350ed063c1461061757600080fd5b806316ba10e01161034f578063377899691161031e578063377899691461053f5780633bbc52e5146105525780633ccfd60b1461057557806342842e0e1461058a57600080fd5b806316ba10e0146104ca57806316c38b3c146104ea57806318160ddd1461050a57806323b872dd1461051f57600080fd5b8063081812fc1161038b578063081812fc1461042a578063095ea7b3146104625780630de0da991461048457806313faede6146104a657600080fd5b806301ffc9a7146103b257806306fdde03146103e757806307c3ddf814610409575b600080fd5b3480156103be57600080fd5b506103d26103cd366004612810565b610b4b565b60405190151581526020015b60405180910390f35b3480156103f357600080fd5b506103fc610b9d565b6040516103de9190612885565b34801561041557600080fd5b506016546103d2906301000000900460ff1681565b34801561043657600080fd5b5061044a610445366004612898565b610c2f565b6040516001600160a01b0390911681526020016103de565b34801561046e57600080fd5b5061048261047d3660046128cd565b610c73565b005b34801561049057600080fd5b506016546103d290640100000000900460ff1681565b3480156104b257600080fd5b506104bc60125481565b6040519081526020016103de565b3480156104d657600080fd5b506104826104e53660046129b4565b610cfa565b3480156104f657600080fd5b506104826105053660046129f8565b610d19565b34801561051657600080fd5b506104bc610d34565b34801561052b57600080fd5b5061048261053a366004612a13565b610d42565b61048261054d366004612a4f565b610d4d565b34801561055e57600080fd5b506016546103d29065010000000000900460ff1681565b34801561058157600080fd5b50610482610faa565b34801561059657600080fd5b506104826105a5366004612a13565b6110b9565b3480156105b657600080fd5b506105ca6105c5366004612aec565b6110d4565b6040516103de9190612b07565b3480156105e357600080fd5b506104826105f2366004612898565b611214565b34801561060357600080fd5b506104826106123660046129b4565b611221565b34801561062357600080fd5b506104826106323660046129f8565b61123c565b34801561064357600080fd5b506016546103d290610100900460ff1681565b34801561066257600080fd5b506103fc611262565b34801561067757600080fd5b506016546103d29060ff1681565b34801561069157600080fd5b506103fc6112f0565b3480156106a657600080fd5b5061044a6106b5366004612898565b6112fd565b6104826106c8366004612a4f565b61130f565b3480156106d957600080fd5b506104bc6106e8366004612aec565b61159d565b3480156106f957600080fd5b506104826115eb565b34801561070e57600080fd5b506017546104bc565b610482610725366004612b4b565b6115ff565b34801561073657600080fd5b50610482610745366004612c1f565b611707565b34801561075657600080fd5b506104bc600a5481565b34801561076c57600080fd5b5061048261077b3660046129b4565b611902565b34801561078c57600080fd5b506008546001600160a01b031661044a565b3480156107aa57600080fd5b506104bc60155481565b3480156107c057600080fd5b506103d26107cf366004612aec565b600d6020526000908152604090205460ff1681565b3480156107f057600080fd5b506103fc61191d565b34801561080557600080fd5b506016546103d29062010000900460ff1681565b34801561082557600080fd5b506104bc60145481565b34801561083b57600080fd5b5061048261084a366004612898565b61192c565b34801561085b57600080fd5b5061048261086a366004612cd4565b611939565b34801561087b57600080fd5b506103fc6119cf565b34801561089057600080fd5b5061048261089f366004612898565b6119dc565b3480156108b057600080fd5b506104826108bf366004612d07565b6119e9565b3480156108d057600080fd5b506103fc611a2d565b3480156108e557600080fd5b506104826108f4366004612898565b611a3a565b34801561090557600080fd5b506104826109143660046129f8565b611a47565b34801561092557600080fd5b506103fc610934366004612898565b611a6f565b34801561094557600080fd5b506104826109543660046129f8565b611be1565b34801561096557600080fd5b506104826109743660046129b4565b611c05565b34801561098557600080fd5b506104bc60135481565b34801561099b57600080fd5b506103d26109aa366004612aec565b600b6020526000908152604090205460ff1681565b3480156109cb57600080fd5b506104826109da3660046129f8565b611c20565b3480156109eb57600080fd5b506104826109fa366004612d82565b611c42565b348015610a0b57600080fd5b50610482610a1a3660046129f8565b611c5b565b348015610a2b57600080fd5b506103fc611c85565b348015610a4057600080fd5b506103d2610a4f366004612dae565b6001600160a01b03918216600090815260076020908152604080832093909416825291909152205460ff1690565b348015610a8957600080fd5b506104bc610a983660046129b4565b805160208183018101805160188252928201919093012091525481565b348015610ac157600080fd5b50610482610ad0366004612898565b611c94565b348015610ae157600080fd5b50610482610af0366004612dd8565b611ca1565b348015610b0157600080fd5b50610482610b10366004612aec565b611d29565b348015610b2157600080fd5b506103fc610b30366004612898565b611da2565b348015610b4157600080fd5b506104bc600c5481565b60006001600160e01b031982166380ac58cd60e01b1480610b7c57506001600160e01b03198216635b5e139f60e01b145b80610b9757506301ffc9a760e01b6001600160e01b03198316145b92915050565b606060028054610bac90612dfb565b80601f0160208091040260200160405190810160405280929190818152602001828054610bd890612dfb565b8015610c255780601f10610bfa57610100808354040283529160200191610c25565b820191906000526020600020905b815481529060010190602001808311610c0857829003601f168201915b5050505050905090565b6000610c3a82611dcd565b610c57576040516333d1c03960e21b815260040160405180910390fd5b506000908152600660205260409020546001600160a01b031690565b6000610c7e826112fd565b9050806001600160a01b0316836001600160a01b03161415610cb35760405163250fdee360e21b815260040160405180910390fd5b336001600160a01b03821614610cea57610ccd8133610a4f565b610cea576040516367d9dca160e11b815260040160405180910390fd5b610cf5838383611e06565b505050565b610d02611e62565b8051610d1590600f906020840190612761565b5050565b610d21611e62565b6016805460ff1916911515919091179055565b600154600054036000190190565b610cf5838383611ebc565b83600081610d59610d34565b610d639190612e4c565b9050600082118015610d7757506015548211155b610d9c5760405162461bcd60e51b8152600401610d9390612e64565b60405180910390fd5b6013548111158015610db057506014548111155b610dcc5760405162461bcd60e51b8152600401610d9390612e99565b6016546301000000900460ff16610e255760405162461bcd60e51b815260206004820152601f60248201527f5468652046726565204d696e742073616c65206973206e6f74206f70656e21006044820152606401610d93565b336000908152600d602052604090205460ff1615610ea15760405162461bcd60e51b815260206004820152603360248201527f596f757220616464726573732068617320616c726561647920636c61696d6564604482015272206974732046726565204c697374204e46542160681b6064820152608401610d93565b6040516bffffffffffffffffffffffff193360601b166020820152600090603401604051602081830303815290604052805190602001209050610f1b85858080602002602001604051908101604052809392919081815260200183836020028082843760009201919091525050600c5491508490506120a7565b610f735760405162461bcd60e51b815260206004820152602360248201527f5468697320697320616e20696e76616c69642046726565204c6973742070726f6044820152626f662160e81b6064820152608401610d93565b336000818152600d60205260409020805460ff19166001179055610f9790886120bd565b610fa186346120d7565b50505050505050565b610fb2611e62565b600260095414156110055760405162461bcd60e51b815260206004820152601f60248201527f5265656e7472616e637947756172643a207265656e7472616e742063616c6c006044820152606401610d93565b6002600955600061101e6008546001600160a01b031690565b6001600160a01b03164760405160006040518083038185875af1925050503d8060008114611068576040519150601f19603f3d011682016040523d82523d6000602084013e61106d565b606091505b50509050806110b15760405162461bcd60e51b815260206004820152601060248201526f5769746864726177204661696c65642160801b6044820152606401610d93565b506001600955565b610cf5838383604051806020016040528060008152506119e9565b606060006110e18361159d565b90506000816001600160401b038111156110fd576110fd6128f7565b604051908082528060200260200182016040528015611126578160200160208202803683370190505b50905060016000805b848210801561113f575060005483105b1561120957600083815260046020908152604091829020825160608101845290546001600160a01b0381168252600160a01b81046001600160401b031692820192909252600160e01b90910460ff161515918101829052906111f65780516001600160a01b0316156111b057805191505b876001600160a01b0316826001600160a01b031614156111f657838584815181106111dd576111dd612f05565b6020908102919091010152826111f281612f1b565b9350505b8361120081612f1b565b9450505061112f565b509195945050505050565b61121c611e62565b601255565b611229611e62565b8051610d15906010906020840190612761565b611244611e62565b6016805491151563010000000263ff00000019909216919091179055565b600f805461126f90612dfb565b80601f016020809104026020016040519081016040528092919081815260200182805461129b90612dfb565b80156112e85780601f106112bd576101008083540402835291602001916112e8565b820191906000526020600020905b8154815290600101906020018083116112cb57829003601f168201915b505050505081565b600e805461126f90612dfb565b6000611308826121ac565b5192915050565b8360008161131b610d34565b6113259190612e4c565b905060008211801561133957506015548211155b6113555760405162461bcd60e51b8152600401610d9390612e64565b601354811115801561136957506014548111155b6113855760405162461bcd60e51b8152600401610d9390612e99565b85806012546113949190612f36565b3410156113b35760405162461bcd60e51b8152600401610d9390612f55565b601654640100000000900460ff166114175760405162461bcd60e51b815260206004820152602160248201527f54686520476f6c64204c6973742073616c65206973206e6f74206163746976656044820152602160f81b6064820152608401610d93565b336000908152600b602052604090205460ff16156114935760405162461bcd60e51b815260206004820152603360248201527f596f757220616464726573732068617320616c726561647920636c61696d65646044820152722069747320476f6c64204c697374204e46542160681b6064820152608401610d93565b6040516bffffffffffffffffffffffff193360601b16602082015260009060340160405160208183030381529060405280519060200120905061150d86868080602002602001604051908101604052809392919081815260200183836020028082843760009201919091525050600a5491508490506120a7565b6115655760405162461bcd60e51b815260206004820152602360248201527f5468697320697320616e20696e76616c696420476f6c64204c6973742070726f6044820152626f662160e81b6064820152608401610d93565b336000818152600b60205260409020805460ff1916600117905561158990896120bd565b61159387346120d7565b5050505050505050565b60006001600160a01b0382166115c6576040516323d3ad8160e21b815260040160405180910390fd5b506001600160a01b03166000908152600560205260409020546001600160401b031690565b6115f3611e62565b6115fd60006122ce565b565b8160008161160b610d34565b6116159190612e4c565b905060008211801561162957506015548211155b6116455760405162461bcd60e51b8152600401610d9390612e64565b601354811115801561165957506014548111155b6116755760405162461bcd60e51b8152600401610d9390612e99565b83806012546116849190612f36565b3410156116a35760405162461bcd60e51b8152600401610d9390612f55565b60165460ff16156116ec5760405162461bcd60e51b81526020600482015260136024820152725468652073616c65206973207061757365642160681b6044820152606401610d93565b6116f633866120bd565b61170084346120d7565b5050505050565b61170f611e62565b60165460ff16156117585760405162461bcd60e51b81526020600482015260136024820152725468652073616c65206973207061757365642160681b6044820152606401610d93565b80518251146117be5760405162461bcd60e51b815260206004820152602c60248201527f4164647265737320616e6420416d6f756e74206c697374206c656e677468732060448201526b0c8de40dcdee840dac2e8c6d60a31b6064820152608401610d93565b60006117c8610d34565b905060005b835181101561180f578281815181106117e8576117e8612f05565b6020026020010151826117fb9190612e4c565b91508061180781612f1b565b9150506117cd565b50601354811115801561182457506014548111155b6118a25760405162461bcd60e51b815260206004820152604360248201527f54686973206261746368206578636565647320746865206d6178696d756d206e60448201527f756d626572206f66204e46545320616c6c6f77656420666f7220746869732073606482015262616c6560e81b608482015260a401610d93565b60005b83518110156118fc576118ea8482815181106118c3576118c3612f05565b60200260200101518483815181106118dd576118dd612f05565b60200260200101516120bd565b806118f481612f1b565b9150506118a5565b50505050565b61190a611e62565b8051610d1590600e906020840190612761565b606060038054610bac90612dfb565b611934611e62565b601455565b6001600160a01b0382163314156119635760405163b06307db60e01b815260040160405180910390fd5b3360008181526007602090815260408083206001600160a01b03871680855290835292819020805460ff191686151590811790915590519081529192917f17307eab39ab6107e8899845ad3d59bd9653f200f220920489ca2b5937696c31910160405180910390a35050565b6010805461126f90612dfb565b6119e4611e62565b601555565b6119f4848484611ebc565b6001600160a01b0383163b156118fc57611a1084848484612320565b6118fc576040516368d2bf6b60e11b815260040160405180910390fd5b6011805461126f90612dfb565b611a42611e62565b600c55565b611a4f611e62565b601680549115156401000000000264ff0000000019909216919091179055565b6060611a7a82611dcd565b611ae15760405162461bcd60e51b815260206004820152603260248201527f4552433732314d657461646174613a2074686520746f6b656e207370656369666044820152711a595908191bd95cc81b9bdd08195e1a5cdd60721b6064820152608401610d93565b601654610100900460ff16611b825760108054611afd90612dfb565b80601f0160208091040260200160405190810160405280929190818152602001828054611b2990612dfb565b8015611b765780601f10611b4b57610100808354040283529160200191611b76565b820191906000526020600020905b815481529060010190602001808311611b5957829003601f168201915b50505050509050919050565b6000611b8c612418565b90506000815111611bac5760405180602001604052806000815250611bda565b80611bb684612427565b600f604051602001611bca93929190612faa565b6040516020818303038152906040525b9392505050565b611be9611e62565b60168054911515620100000262ff000019909216919091179055565b611c0d611e62565b8051610d15906011906020840190612761565b611c28611e62565b601680549115156101000261ff0019909216919091179055565b611c4a611e62565b601292909255601491909155601555565b611c63611e62565b60168054911515650100000000000265ff000000000019909216919091179055565b606060118054610bac90612dfb565b611c9c611e62565b600a55565b81600081611cad610d34565b611cb79190612e4c565b9050600082118015611ccb57506015548211155b611ce75760405162461bcd60e51b8152600401610d9390612e64565b6013548111158015611cfb57506014548111155b611d175760405162461bcd60e51b8152600401610d9390612e99565b611d1f611e62565b6118fc83856120bd565b611d31611e62565b6001600160a01b038116611d965760405162461bcd60e51b815260206004820152602660248201527f4f776e61626c653a206e6577206f776e657220697320746865207a65726f206160448201526564647265737360d01b6064820152608401610d93565b611d9f816122ce565b50565b60178181548110611db257600080fd5b90600052602060002001600091509050805461126f90612dfb565b600081600111158015611de1575060005482105b8015610b97575050600090815260046020526040902054600160e01b900460ff161590565b60008281526006602052604080822080546001600160a01b0319166001600160a01b0387811691821790925591518593918516917f8c5be1e5ebec7d5bd14f71427d1e84f3dd0314c0f7b2291e5b200ac8c7c3b92591a4505050565b6008546001600160a01b031633146115fd5760405162461bcd60e51b815260206004820181905260248201527f4f776e61626c653a2063616c6c6572206973206e6f7420746865206f776e65726044820152606401610d93565b6000611ec7826121ac565b9050836001600160a01b031681600001516001600160a01b031614611efe5760405162a1148160e81b815260040160405180910390fd5b6000336001600160a01b0386161480611f1c5750611f1c8533610a4f565b80611f37575033611f2c84610c2f565b6001600160a01b0316145b905080611f5757604051632ce44b5f60e11b815260040160405180910390fd5b6001600160a01b038416611f7e57604051633a954ecd60e21b815260040160405180910390fd5b611f8a60008487611e06565b6001600160a01b038581166000908152600560209081526040808320805467ffffffffffffffff198082166001600160401b0392831660001901831617909255898616808652838620805493841693831660019081018416949094179055898652600490945282852080546001600160e01b031916909417600160a01b4290921691909102178355870180845292208054919390911661205e57600054821461205e57805460208601516001600160401b0316600160a01b026001600160e01b03199091166001600160a01b038a16171781555b50505082846001600160a01b0316866001600160a01b03167fddf252ad1be2c89b69c2b068fc378daa952ba7f163c4a11628f55a4df523b3ef60405160405180910390a4611700565b6000826120b48584612524565b14949350505050565b610d15828260405180602001604052806000815250612571565b6019826040516120e7919061306e565b9081526040519081900360200190205460ff1661217557601780546001810182556000919091528251612141917fc624b66cc0138b8fabc209247f72d758e1cf3343756d543badbf24212bed8c1501906020850190612761565b506001601983604051612154919061306e565b908152604051908190036020019020805491151560ff199092169190911790555b80601883604051612186919061306e565b908152602001604051809103902060008282546121a39190612e4c565b90915550505050565b604080516060810182526000808252602082018190529181019190915281806001116122b5576000548110156122b557600081815260046020908152604091829020825160608101845290546001600160a01b0381168252600160a01b81046001600160401b031692820192909252600160e01b90910460ff161515918101829052906122b35780516001600160a01b03161561224a579392505050565b5060001901600081815260046020908152604091829020825160608101845290546001600160a01b038116808352600160a01b82046001600160401b031693830193909352600160e01b900460ff16151592810192909252156122ae579392505050565b61224a565b505b604051636f96cda160e11b815260040160405180910390fd5b600880546001600160a01b038381166001600160a01b0319831681179093556040519116919082907f8be0079c531659141344cd1fd0a4f28419497f9722a3daafe3b4186f6b6457e090600090a35050565b604051630a85bd0160e11b81526000906001600160a01b0385169063150b7a029061235590339089908890889060040161308a565b602060405180830381600087803b15801561236f57600080fd5b505af192505050801561239f575060408051601f3d908101601f1916820190925261239c918101906130c7565b60015b6123fa573d8080156123cd576040519150601f19603f3d011682016040523d82523d6000602084013e6123d2565b606091505b5080516123f2576040516368d2bf6b60e11b815260040160405180910390fd5b805181602001fd5b6001600160e01b031916630a85bd0160e11b1490505b949350505050565b6060600e8054610bac90612dfb565b60608161244b5750506040805180820190915260018152600360fc1b602082015290565b8160005b8115612475578061245f81612f1b565b915061246e9050600a836130fa565b915061244f565b6000816001600160401b0381111561248f5761248f6128f7565b6040519080825280601f01601f1916602001820160405280156124b9576020820181803683370190505b5090505b8415612410576124ce60018361310e565b91506124db600a86613125565b6124e6906030612e4c565b60f81b8183815181106124fb576124fb612f05565b60200101906001600160f81b031916908160001a90535061251d600a866130fa565b94506124bd565b600081815b8451811015612569576125558286838151811061254857612548612f05565b6020026020010151612735565b91508061256181612f1b565b915050612529565b509392505050565b6000546001600160a01b03841661259a57604051622e076360e81b815260040160405180910390fd5b826125b85760405163b562e8dd60e01b815260040160405180910390fd5b6001600160a01b038416600081815260056020908152604080832080546fffffffffffffffffffffffffffffffff1981166001600160401b038083168b0181169182176801000000000000000067ffffffffffffffff1990941690921783900481168b01811690920217909155858452600490925290912080546001600160e01b0319168317600160a01b42909316929092029190911790558190818501903b156126e0575b60405182906001600160a01b038816906000907fddf252ad1be2c89b69c2b068fc378daa952ba7f163c4a11628f55a4df523b3ef908290a46126a96000878480600101955087612320565b6126c6576040516368d2bf6b60e11b815260040160405180910390fd5b80821061265e5782600054146126db57600080fd5b612725565b5b6040516001830192906001600160a01b038816906000907fddf252ad1be2c89b69c2b068fc378daa952ba7f163c4a11628f55a4df523b3ef908290a48082106126e1575b5060009081556118fc9085838684565b6000818310612751576000828152602084905260409020611bda565b5060009182526020526040902090565b82805461276d90612dfb565b90600052602060002090601f01602090048101928261278f57600085556127d5565b82601f106127a857805160ff19168380011785556127d5565b828001600101855582156127d5579182015b828111156127d55782518255916020019190600101906127ba565b506127e19291506127e5565b5090565b5b808211156127e157600081556001016127e6565b6001600160e01b031981168114611d9f57600080fd5b60006020828403121561282257600080fd5b8135611bda816127fa565b60005b83811015612848578181015183820152602001612830565b838111156118fc5750506000910152565b6000815180845261287181602086016020860161282d565b601f01601f19169290920160200192915050565b602081526000611bda6020830184612859565b6000602082840312156128aa57600080fd5b5035919050565b80356001600160a01b03811681146128c857600080fd5b919050565b600080604083850312156128e057600080fd5b6128e9836128b1565b946020939093013593505050565b634e487b7160e01b600052604160045260246000fd5b604051601f8201601f191681016001600160401b0381118282101715612935576129356128f7565b604052919050565b60006001600160401b03831115612956576129566128f7565b612969601f8401601f191660200161290d565b905082815283838301111561297d57600080fd5b828260208301376000602084830101529392505050565b600082601f8301126129a557600080fd5b611bda8383356020850161293d565b6000602082840312156129c657600080fd5b81356001600160401b038111156129dc57600080fd5b61241084828501612994565b803580151581146128c857600080fd5b600060208284031215612a0a57600080fd5b611bda826129e8565b600080600060608486031215612a2857600080fd5b612a31846128b1565b9250612a3f602085016128b1565b9150604084013590509250925092565b60008060008060608587031215612a6557600080fd5b8435935060208501356001600160401b0380821115612a8357600080fd5b612a8f88838901612994565b94506040870135915080821115612aa557600080fd5b818701915087601f830112612ab957600080fd5b813581811115612ac857600080fd5b8860208260051b8501011115612add57600080fd5b95989497505060200194505050565b600060208284031215612afe57600080fd5b611bda826128b1565b6020808252825182820181905260009190848201906040850190845b81811015612b3f57835183529284019291840191600101612b23565b50909695505050505050565b60008060408385031215612b5e57600080fd5b8235915060208301356001600160401b03811115612b7b57600080fd5b612b8785828601612994565b9150509250929050565b60006001600160401b03821115612baa57612baa6128f7565b5060051b60200190565b600082601f830112612bc557600080fd5b81356020612bda612bd583612b91565b61290d565b82815260059290921b84018101918181019086841115612bf957600080fd5b8286015b84811015612c145780358352918301918301612bfd565b509695505050505050565b60008060408385031215612c3257600080fd5b82356001600160401b0380821115612c4957600080fd5b818501915085601f830112612c5d57600080fd5b81356020612c6d612bd583612b91565b82815260059290921b84018101918181019089841115612c8c57600080fd5b948201945b83861015612cb157612ca2866128b1565b82529482019490820190612c91565b96505086013592505080821115612cc757600080fd5b50612b8785828601612bb4565b60008060408385031215612ce757600080fd5b612cf0836128b1565b9150612cfe602084016129e8565b90509250929050565b60008060008060808587031215612d1d57600080fd5b612d26856128b1565b9350612d34602086016128b1565b92506040850135915060608501356001600160401b03811115612d5657600080fd5b8501601f81018713612d6757600080fd5b612d768782356020840161293d565b91505092959194509250565b600080600060608486031215612d9757600080fd5b505081359360208301359350604090920135919050565b60008060408385031215612dc157600080fd5b612dca836128b1565b9150612cfe602084016128b1565b60008060408385031215612deb57600080fd5b82359150612cfe602084016128b1565b600181811c90821680612e0f57607f821691505b60208210811415612e3057634e487b7160e01b600052602260045260246000fd5b50919050565b634e487b7160e01b600052601160045260246000fd5b60008219821115612e5f57612e5f612e36565b500190565b6020808252818101527f596f752063616e206e6f74206d696e742074686973206d616e79206974656d73604082015260600190565b60208082526046908201527f54686973207075726368617365206578636565647320746865206d6178696d7560408201527f6d206e756d626572206f66204e46545320616c6c6f77656420666f7220746869606082015265732073616c6560d01b608082015260a00190565b634e487b7160e01b600052603260045260246000fd5b6000600019821415612f2f57612f2f612e36565b5060010190565b6000816000190483118215151615612f5057612f50612e36565b500290565b60208082526035908201527f596f7520646964206e6f742073656e6420656e6f7567682045544820746f20636040820152746f6d706c657465207468697320707572636861736560581b606082015260800190565b600084516020612fbd8285838a0161282d565b855191840191612fd08184848a0161282d565b8554920191600090600181811c9080831680612fed57607f831692505b85831081141561300b57634e487b7160e01b85526022600452602485fd5b80801561301f57600181146130305761305d565b60ff1985168852838801955061305d565b60008b81526020902060005b858110156130555781548a82015290840190880161303c565b505083880195505b50939b9a5050505050505050505050565b6000825161308081846020870161282d565b9190910192915050565b6001600160a01b03858116825284166020820152604081018390526080606082018190526000906130bd90830184612859565b9695505050505050565b6000602082840312156130d957600080fd5b8151611bda816127fa565b634e487b7160e01b600052601260045260246000fd5b600082613109576131096130e4565b500490565b60008282101561312057613120612e36565b500390565b600082613134576131346130e4565b50069056fea2646970667358221220883af758621db728121ef6cfa2b24def4f3a097c0c9c043c87f7cf25a716498264736f6c63430008090033",
  "linkReferences": {},
  "deployedLinkReferences": {}
}