{
  "_format": "hh-sol-artifact-1",
  "contractName": "DeixaXastroCollection",
  "sourceName": "contracts/DeixaXastroCollection.sol",
  "abi": [
    {
      "inputs": [
        {
          "internalType": "string",
          "name": "_tokenName",
          "type": "string"
        },
        {
          "internalType": "string",
          "name": "_tokenSymbol",
          "type": "string"
        },
        {
          "internalType": "uint256",
          "name": "_cost",
          "type": "uint256"
        },
        {
          "internalType": "uint256",
          "name": "_maxSupply",
          "type": "uint256"
        },
        {
          "internalType": "uint256",
          "name": "_mintLimit",
          "type": "uint256"
        },
        {
          "internalType": "uint256",
          "name": "_maxMintAmountPerTx",
          "type": "uint256"
        },
        {
          "internalType": "string",
          "name": "_hiddenMetadataUri",
          "type": "string"
        },
        {
          "internalType": "string",
          "name": "_contractMetadataUri",
          "type": "string"
        }
      ],
      "stateMutability": "nonpayable",
      "type": "constructor"
    },
    {
      "inputs": [],
      "name": "ApprovalCallerNotOwnerNorApproved",
      "type": "error"
    },
    {
      "inputs": [],
      "name": "ApprovalQueryForNonexistentToken",
      "type": "error"
    },
    {
      "inputs": [],
      "name": "ApprovalToCurrentOwner",
      "type": "error"
    },
    {
      "inputs": [],
      "name": "ApproveToCaller",
      "type": "error"
    },
    {
      "inputs": [],
      "name": "BalanceQueryForZeroAddress",
      "type": "error"
    },
    {
      "inputs": [],
      "name": "MintToZeroAddress",
      "type": "error"
    },
    {
      "inputs": [],
      "name": "MintZeroQuantity",
      "type": "error"
    },
    {
      "inputs": [],
      "name": "OwnerQueryForNonexistentToken",
      "type": "error"
    },
    {
      "inputs": [],
      "name": "TransferCallerNotOwnerNorApproved",
      "type": "error"
    },
    {
      "inputs": [],
      "name": "TransferFromIncorrectOwner",
      "type": "error"
    },
    {
      "inputs": [],
      "name": "TransferToNonERC721ReceiverImplementer",
      "type": "error"
    },
    {
      "inputs": [],
      "name": "TransferToZeroAddress",
      "type": "error"
    },
    {
      "inputs": [],
      "name": "URIQueryForNonexistentToken",
      "type": "error"
    },
    {
      "anonymous": false,
      "inputs": [
        {
          "indexed": true,
          "internalType": "address",
          "name": "owner",
          "type": "address"
        },
        {
          "indexed": true,
          "internalType": "address",
          "name": "approved",
          "type": "address"
        },
        {
          "indexed": true,
          "internalType": "uint256",
          "name": "tokenId",
          "type": "uint256"
        }
      ],
      "name": "Approval",
      "type": "event"
    },
    {
      "anonymous": false,
      "inputs": [
        {
          "indexed": true,
          "internalType": "address",
          "name": "owner",
          "type": "address"
        },
        {
          "indexed": true,
          "internalType": "address",
          "name": "operator",
          "type": "address"
        },
        {
          "indexed": false,
          "internalType": "bool",
          "name": "approved",
          "type": "bool"
        }
      ],
      "name": "ApprovalForAll",
      "type": "event"
    },
    {
      "anonymous": false,
      "inputs": [
        {
          "indexed": true,
          "internalType": "address",
          "name": "previousOwner",
          "type": "address"
        },
        {
          "indexed": true,
          "internalType": "address",
          "name": "newOwner",
          "type": "address"
        }
      ],
      "name": "OwnershipTransferred",
      "type": "event"
    },
    {
      "anonymous": false,
      "inputs": [
        {
          "indexed": true,
          "internalType": "address",
          "name": "from",
          "type": "address"
        },
        {
          "indexed": true,
          "internalType": "address",
          "name": "to",
          "type": "address"
        },
        {
          "indexed": true,
          "internalType": "uint256",
          "name": "tokenId",
          "type": "uint256"
        }
      ],
      "name": "Transfer",
      "type": "event"
    },
    {
      "inputs": [
        {
          "internalType": "address",
          "name": "to",
          "type": "address"
        },
        {
          "internalType": "uint256",
          "name": "tokenId",
          "type": "uint256"
        }
      ],
      "name": "approve",
      "outputs": [],
      "stateMutability": "nonpayable",
      "type": "function"
    },
    {
      "inputs": [
        {
          "internalType": "address",
          "name": "owner",
          "type": "address"
        }
      ],
      "name": "balanceOf",
      "outputs": [
        {
          "internalType": "uint256",
          "name": "",
          "type": "uint256"
        }
      ],
      "stateMutability": "view",
      "type": "function"
    },
    {
      "inputs": [],
      "name": "contractMetadataUri",
      "outputs": [
        {
          "internalType": "string",
          "name": "",
          "type": "string"
        }
      ],
      "stateMutability": "view",
      "type": "function"
    },
    {
      "inputs": [],
      "name": "contractURI",
      "outputs": [
        {
          "internalType": "string",
          "name": "",
          "type": "string"
        }
      ],
      "stateMutability": "view",
      "type": "function"
    },
    {
      "inputs": [],
      "name": "cost",
      "outputs": [
        {
          "internalType": "uint256",
          "name": "",
          "type": "uint256"
        }
      ],
      "stateMutability": "view",
      "type": "function"
    },
    {
      "inputs": [],
      "name": "daoWallet",
      "outputs": [
        {
          "internalType": "address",
          "name": "",
          "type": "address"
        }
      ],
      "stateMutability": "view",
      "type": "function"
    },
    {
      "inputs": [
        {
          "internalType": "address",
          "name": "",
          "type": "address"
        }
      ],
      "name": "freeListClaimed",
      "outputs": [
        {
          "internalType": "bool",
          "name": "",
          "type": "bool"
        }
      ],
      "stateMutability": "view",
      "type": "function"
    },
    {
      "inputs": [],
      "name": "freeListMerkleRoot",
      "outputs": [
        {
          "internalType": "bytes32",
          "name": "",
          "type": "bytes32"
        }
      ],
      "stateMutability": "view",
      "type": "function"
    },
    {
      "inputs": [
        {
          "internalType": "uint256",
          "name": "_mintAmount",
          "type": "uint256"
        },
        {
          "internalType": "string",
          "name": "_promotionCode",
          "type": "string"
        },
        {
          "internalType": "bytes32[]",
          "name": "_merkleProof",
          "type": "bytes32[]"
        }
      ],
      "name": "freeListMint",
      "outputs": [],
      "stateMutability": "payable",
      "type": "function"
    },
    {
      "inputs": [],
      "name": "freeListMintEnabled",
      "outputs": [
        {
          "internalType": "bool",
          "name": "",
          "type": "bool"
        }
      ],
      "stateMutability": "view",
      "type": "function"
    },
    {
      "inputs": [
        {
          "internalType": "uint256",
          "name": "tokenId",
          "type": "uint256"
        }
      ],
      "name": "getApproved",
      "outputs": [
        {
          "internalType": "address",
          "name": "",
          "type": "address"
        }
      ],
      "stateMutability": "view",
      "type": "function"
    },
    {
      "inputs": [
        {
          "internalType": "address",
          "name": "",
          "type": "address"
        }
      ],
      "name": "goldListClaimed",
      "outputs": [
        {
          "internalType": "bool",
          "name": "",
          "type": "bool"
        }
      ],
      "stateMutability": "view",
      "type": "function"
    },
    {
      "inputs": [],
      "name": "goldListMerkleRoot",
      "outputs": [
        {
          "internalType": "bytes32",
          "name": "",
          "type": "bytes32"
        }
      ],
      "stateMutability": "view",
      "type": "function"
    },
    {
      "inputs": [
        {
          "internalType": "uint256",
          "name": "_mintAmount",
          "type": "uint256"
        },
        {
          "internalType": "string",
          "name": "_promotionCode",
          "type": "string"
        },
        {
          "internalType": "bytes32[]",
          "name": "_merkleProof",
          "type": "bytes32[]"
        }
      ],
      "name": "goldListMint",
      "outputs": [],
      "stateMutability": "payable",
      "type": "function"
    },
    {
      "inputs": [],
      "name": "goldListMintEnabled",
      "outputs": [
        {
          "internalType": "bool",
          "name": "",
          "type": "bool"
        }
      ],
      "stateMutability": "view",
      "type": "function"
    },
    {
      "inputs": [],
      "name": "hiddenMetadataUri",
      "outputs": [
        {
          "internalType": "string",
          "name": "",
          "type": "string"
        }
      ],
      "stateMutability": "view",
      "type": "function"
    },
    {
      "inputs": [
        {
          "internalType": "address",
          "name": "owner",
          "type": "address"
        },
        {
          "internalType": "address",
          "name": "operator",
          "type": "address"
        }
      ],
      "name": "isApprovedForAll",
      "outputs": [
        {
          "internalType": "bool",
          "name": "",
          "type": "bool"
        }
      ],
      "stateMutability": "view",
      "type": "function"
    },
    {
      "inputs": [],
      "name": "maxMintAmountPerTx",
      "outputs": [
        {
          "internalType": "uint256",
          "name": "",
          "type": "uint256"
        }
      ],
      "stateMutability": "view",
      "type": "function"
    },
    {
      "inputs": [],
      "name": "maxSupply",
      "outputs": [
        {
          "internalType": "uint256",
          "name": "",
          "type": "uint256"
        }
      ],
      "stateMutability": "view",
      "type": "function"
    },
    {
      "inputs": [
        {
          "internalType": "uint256",
          "name": "_mintAmount",
          "type": "uint256"
        },
        {
          "internalType": "string",
          "name": "_promotionCode",
          "type": "string"
        }
      ],
      "name": "mint",
      "outputs": [],
      "stateMutability": "payable",
      "type": "function"
    },
    {
      "inputs": [
        {
          "internalType": "address[]",
          "name": "addresses",
          "type": "address[]"
        },
        {
          "internalType": "uint256[]",
          "name": "amounts",
          "type": "uint256[]"
        },
        {
          "internalType": "string[]",
          "name": "promocodes",
          "type": "string[]"
        }
      ],
      "name": "mintBatch",
      "outputs": [],
      "stateMutability": "nonpayable",
      "type": "function"
    },
    {
      "inputs": [
        {
          "internalType": "uint256",
          "name": "_mintAmount",
          "type": "uint256"
        },
        {
          "internalType": "address",
          "name": "_receiver",
          "type": "address"
        }
      ],
      "name": "mintForAddress",
      "outputs": [],
      "stateMutability": "nonpayable",
      "type": "function"
    },
    {
      "inputs": [],
      "name": "mintLimit",
      "outputs": [
        {
          "internalType": "uint256",
          "name": "",
          "type": "uint256"
        }
      ],
      "stateMutability": "view",
      "type": "function"
    },
    {
      "inputs": [],
      "name": "name",
      "outputs": [
        {
          "internalType": "string",
          "name": "",
          "type": "string"
        }
      ],
      "stateMutability": "view",
      "type": "function"
    },
    {
      "inputs": [],
      "name": "owner",
      "outputs": [
        {
          "internalType": "address",
          "name": "",
          "type": "address"
        }
      ],
      "stateMutability": "view",
      "type": "function"
    },
    {
      "inputs": [
        {
          "internalType": "uint256",
          "name": "tokenId",
          "type": "uint256"
        }
      ],
      "name": "ownerOf",
      "outputs": [
        {
          "internalType": "address",
          "name": "",
          "type": "address"
        }
      ],
      "stateMutability": "view",
      "type": "function"
    },
    {
      "inputs": [],
      "name": "paused",
      "outputs": [
        {
          "internalType": "bool",
          "name": "",
          "type": "bool"
        }
      ],
      "stateMutability": "view",
      "type": "function"
    },
    {
      "inputs": [],
      "name": "preSaleMintEnabled",
      "outputs": [
        {
          "internalType": "bool",
          "name": "",
          "type": "bool"
        }
      ],
      "stateMutability": "view",
      "type": "function"
    },
    {
      "inputs": [],
      "name": "promotionCodeCount",
      "outputs": [
        {
          "internalType": "uint256",
          "name": "",
          "type": "uint256"
        }
      ],
      "stateMutability": "view",
      "type": "function"
    },
    {
      "inputs": [
        {
          "internalType": "string",
          "name": "",
          "type": "string"
        }
      ],
      "name": "promotionCodeToSales",
      "outputs": [
        {
          "internalType": "uint256",
          "name": "",
          "type": "uint256"
        }
      ],
      "stateMutability": "view",
      "type": "function"
    },
    {
      "inputs": [
        {
          "internalType": "uint256",
          "name": "",
          "type": "uint256"
        }
      ],
      "name": "promotionCodes",
      "outputs": [
        {
          "internalType": "string",
          "name": "",
          "type": "string"
        }
      ],
      "stateMutability": "view",
      "type": "function"
    },
    {
      "inputs": [],
      "name": "released",
      "outputs": [
        {
          "internalType": "bool",
          "name": "",
          "type": "bool"
        }
      ],
      "stateMutability": "view",
      "type": "function"
    },
    {
      "inputs": [],
      "name": "renounceOwnership",
      "outputs": [],
      "stateMutability": "nonpayable",
      "type": "function"
    },
    {
      "inputs": [],
      "name": "revealed",
      "outputs": [
        {
          "internalType": "bool",
          "name": "",
          "type": "bool"
        }
      ],
      "stateMutability": "view",
      "type": "function"
    },
    {
      "inputs": [
        {
          "internalType": "address",
          "name": "from",
          "type": "address"
        },
        {
          "internalType": "address",
          "name": "to",
          "type": "address"
        },
        {
          "internalType": "uint256",
          "name": "tokenId",
          "type": "uint256"
        }
      ],
      "name": "safeTransferFrom",
      "outputs": [],
      "stateMutability": "nonpayable",
      "type": "function"
    },
    {
      "inputs": [
        {
          "internalType": "address",
          "name": "from",
          "type": "address"
        },
        {
          "internalType": "address",
          "name": "to",
          "type": "address"
        },
        {
          "internalType": "uint256",
          "name": "tokenId",
          "type": "uint256"
        },
        {
          "internalType": "bytes",
          "name": "_data",
          "type": "bytes"
        }
      ],
      "name": "safeTransferFrom",
      "outputs": [],
      "stateMutability": "nonpayable",
      "type": "function"
    },
    {
      "inputs": [
        {
          "internalType": "address",
          "name": "operator",
          "type": "address"
        },
        {
          "internalType": "bool",
          "name": "approved",
          "type": "bool"
        }
      ],
      "name": "setApprovalForAll",
      "outputs": [],
      "stateMutability": "nonpayable",
      "type": "function"
    },
    {
      "inputs": [
        {
          "internalType": "string",
          "name": "_contractMetadataUri",
          "type": "string"
        }
      ],
      "name": "setContractMetadataUri",
      "outputs": [],
      "stateMutability": "nonpayable",
      "type": "function"
    },
    {
      "inputs": [
        {
          "internalType": "uint256",
          "name": "_cost",
          "type": "uint256"
        }
      ],
      "name": "setCost",
      "outputs": [],
      "stateMutability": "nonpayable",
      "type": "function"
    },
    {
      "inputs": [
        {
          "internalType": "address",
          "name": "_walletAddress",
          "type": "address"
        }
      ],
      "name": "setDaoWallet",
      "outputs": [],
      "stateMutability": "nonpayable",
      "type": "function"
    },
    {
      "inputs": [
        {
          "internalType": "bytes32",
          "name": "_merkleRoot",
          "type": "bytes32"
        }
      ],
      "name": "setFreeListMerkleRoot",
      "outputs": [],
      "stateMutability": "nonpayable",
      "type": "function"
    },
    {
      "inputs": [
        {
          "internalType": "bool",
          "name": "_state",
          "type": "bool"
        }
      ],
      "name": "setFreeListMintEnabled",
      "outputs": [],
      "stateMutability": "nonpayable",
      "type": "function"
    },
    {
      "inputs": [
        {
          "internalType": "bytes32",
          "name": "_merkleRoot",
          "type": "bytes32"
        }
      ],
      "name": "setGoldListMerkleRoot",
      "outputs": [],
      "stateMutability": "nonpayable",
      "type": "function"
    },
    {
      "inputs": [
        {
          "internalType": "bool",
          "name": "_state",
          "type": "bool"
        }
      ],
      "name": "setGoldListMintEnabled",
      "outputs": [],
      "stateMutability": "nonpayable",
      "type": "function"
    },
    {
      "inputs": [
        {
          "internalType": "string",
          "name": "_hiddenMetadataUri",
          "type": "string"
        }
      ],
      "name": "setHiddenMetadataUri",
      "outputs": [],
      "stateMutability": "nonpayable",
      "type": "function"
    },
    {
      "inputs": [
        {
          "internalType": "uint256",
          "name": "_maxMintAmountPerTx",
          "type": "uint256"
        }
      ],
      "name": "setMaxMintAmountPerTx",
      "outputs": [],
      "stateMutability": "nonpayable",
      "type": "function"
    },
    {
      "inputs": [
        {
          "internalType": "uint256",
          "name": "_mintLimit",
          "type": "uint256"
        }
      ],
      "name": "setMintLimit",
      "outputs": [],
      "stateMutability": "nonpayable",
      "type": "function"
    },
    {
      "inputs": [
        {
          "internalType": "bool",
          "name": "_state",
          "type": "bool"
        }
      ],
      "name": "setPaused",
      "outputs": [],
      "stateMutability": "nonpayable",
      "type": "function"
    },
    {
      "inputs": [
        {
          "internalType": "bool",
          "name": "_state",
          "type": "bool"
        }
      ],
      "name": "setPreSaleMintEnabled",
      "outputs": [],
      "stateMutability": "nonpayable",
      "type": "function"
    },
    {
      "inputs": [
        {
          "internalType": "bool",
          "name": "_state",
          "type": "bool"
        }
      ],
      "name": "setReleased",
      "outputs": [],
      "stateMutability": "nonpayable",
      "type": "function"
    },
    {
      "inputs": [
        {
          "internalType": "bool",
          "name": "_state",
          "type": "bool"
        }
      ],
      "name": "setRevealed",
      "outputs": [],
      "stateMutability": "nonpayable",
      "type": "function"
    },
    {
      "inputs": [
        {
          "internalType": "uint256",
          "name": "_cost",
          "type": "uint256"
        },
        {
          "internalType": "uint256",
          "name": "_maxMintAmountPerTx",
          "type": "uint256"
        },
        {
          "internalType": "uint256",
          "name": "_mintLimit",
          "type": "uint256"
        }
      ],
      "name": "setSaleParameters",
      "outputs": [],
      "stateMutability": "nonpayable",
      "type": "function"
    },
    {
      "inputs": [
        {
          "internalType": "string",
          "name": "_uriPrefix",
          "type": "string"
        }
      ],
      "name": "setUriPrefix",
      "outputs": [],
      "stateMutability": "nonpayable",
      "type": "function"
    },
    {
      "inputs": [
        {
          "internalType": "string",
          "name": "_uriSuffix",
          "type": "string"
        }
      ],
      "name": "setUriSuffix",
      "outputs": [],
      "stateMutability": "nonpayable",
      "type": "function"
    },
    {
      "inputs": [
        {
          "internalType": "bytes4",
          "name": "interfaceId",
          "type": "bytes4"
        }
      ],
      "name": "supportsInterface",
      "outputs": [
        {
          "internalType": "bool",
          "name": "",
          "type": "bool"
        }
      ],
      "stateMutability": "view",
      "type": "function"
    },
    {
      "inputs": [],
      "name": "symbol",
      "outputs": [
        {
          "internalType": "string",
          "name": "",
          "type": "string"
        }
      ],
      "stateMutability": "view",
      "type": "function"
    },
    {
      "inputs": [
        {
          "internalType": "uint256",
          "name": "_tokenId",
          "type": "uint256"
        }
      ],
      "name": "tokenURI",
      "outputs": [
        {
          "internalType": "string",
          "name": "",
          "type": "string"
        }
      ],
      "stateMutability": "view",
      "type": "function"
    },
    {
      "inputs": [],
      "name": "totalSupply",
      "outputs": [
        {
          "internalType": "uint256",
          "name": "",
          "type": "uint256"
        }
      ],
      "stateMutability": "view",
      "type": "function"
    },
    {
      "inputs": [
        {
          "internalType": "address",
          "name": "from",
          "type": "address"
        },
        {
          "internalType": "address",
          "name": "to",
          "type": "address"
        },
        {
          "internalType": "uint256",
          "name": "tokenId",
          "type": "uint256"
        }
      ],
      "name": "transferFrom",
      "outputs": [],
      "stateMutability": "nonpayable",
      "type": "function"
    },
    {
      "inputs": [
        {
          "internalType": "address",
          "name": "newOwner",
          "type": "address"
        }
      ],
      "name": "transferOwnership",
      "outputs": [],
      "stateMutability": "nonpayable",
      "type": "function"
    },
    {
      "inputs": [],
      "name": "uriPrefix",
      "outputs": [
        {
          "internalType": "string",
          "name": "",
          "type": "string"
        }
      ],
      "stateMutability": "view",
      "type": "function"
    },
    {
      "inputs": [],
      "name": "uriSuffix",
      "outputs": [
        {
          "internalType": "string",
          "name": "",
          "type": "string"
        }
      ],
      "stateMutability": "view",
      "type": "function"
    },
    {
      "inputs": [
        {
          "internalType": "address",
          "name": "_owner",
          "type": "address"
        }
      ],
      "name": "walletOfOwner",
      "outputs": [
        {
          "internalType": "uint256[]",
          "name": "",
          "type": "uint256[]"
        }
      ],
      "stateMutability": "view",
      "type": "function"
    },
    {
      "inputs": [],
      "name": "withdraw",
      "outputs": [],
      "stateMutability": "nonpayable",
      "type": "function"
    }
  ],
  "bytecode": "0x60a06040819052600060808190526200001b91600e9162000251565b5060408051808201909152600580825264173539b7b760d91b60209092019182526200004a91600f9162000251565b506016805465ffffffffffff19166401000000011790553480156200006e57600080fd5b50604051620037d6380380620037d68339810160408190526200009191620003c4565b875188908890620000aa90600290602085019062000251565b508051620000c090600390602084019062000251565b5050600160005550620000d3336200013e565b6001600955620000e38662000190565b60138590556014849055600854601a80546001600160a01b0319166001600160a01b039092169190911790556200011a836200019f565b6200012582620001ae565b6200013081620001d1565b5050505050505050620004e1565b600880546001600160a01b038381166001600160a01b0319831681179093556040519116919082907f8be0079c531659141344cd1fd0a4f28419497f9722a3daafe3b4186f6b6457e090600090a35050565b6200019a620001f0565b601255565b620001a9620001f0565b601555565b620001b8620001f0565b8051620001cd90601090602084019062000251565b5050565b620001db620001f0565b8051620001cd90601190602084019062000251565b6008546001600160a01b031633146200024f5760405162461bcd60e51b815260206004820181905260248201527f4f776e61626c653a2063616c6c6572206973206e6f7420746865206f776e6572604482015260640160405180910390fd5b565b8280546200025f90620004a4565b90600052602060002090601f016020900481019282620002835760008555620002ce565b82601f106200029e57805160ff1916838001178555620002ce565b82800160010185558215620002ce579182015b82811115620002ce578251825591602001919060010190620002b1565b50620002dc929150620002e0565b5090565b5b80821115620002dc5760008155600101620002e1565b634e487b7160e01b600052604160045260246000fd5b600082601f8301126200031f57600080fd5b81516001600160401b03808211156200033c576200033c620002f7565b604051601f8301601f19908116603f01168101908282118183101715620003675762000367620002f7565b816040528381526020925086838588010111156200038457600080fd5b600091505b83821015620003a8578582018301518183018401529082019062000389565b83821115620003ba5760008385830101525b9695505050505050565b600080600080600080600080610100898b031215620003e257600080fd5b88516001600160401b0380821115620003fa57600080fd5b620004088c838d016200030d565b995060208b01519150808211156200041f57600080fd5b6200042d8c838d016200030d565b985060408b0151975060608b0151965060808b0151955060a08b0151945060c08b01519150808211156200046057600080fd5b6200046e8c838d016200030d565b935060e08b01519150808211156200048557600080fd5b50620004948b828c016200030d565b9150509295985092959890939650565b600181811c90821680620004b957607f821691505b60208210811415620004db57634e487b7160e01b600052602260045260246000fd5b50919050565b6132e580620004f16000396000f3fe6080604052600436106103c35760003560e01c80637ec4a659116101f2578063c87b56dd1161010d578063e8a3d485116100a0578063efbd73f41161006f578063efbd73f414610b2b578063f2fde38b14610b4b578063f89a01a814610b6b578063fb0220c214610b8b57600080fd5b8063e8a3d48514610a75578063e985e9c514610a8a578063eadfec2914610ad3578063ef351f6c14610b0b57600080fd5b8063d612620b116100dc578063d612620b146109e5578063e0a8085314610a15578063e249b7ce14610a35578063e872493714610a5557600080fd5b8063c87b56dd1461096f578063d1fea3d51461098f578063d2423105146109af578063d5abeb01146109cf57600080fd5b80639e6a1d7d11610185578063b88d4fde11610154578063b88d4fde146108fa578063ba66a5f91461091a578063c280c88e1461092f578063c28409441461094f57600080fd5b80639e6a1d7d14610885578063a22cb465146108a5578063a45ba8e7146108c5578063b071401b146108da57600080fd5b80639579e688116101c15780639579e6881461080a57806395d89b411461083a578063961325211461084f578063996517cf1461086f57600080fd5b80637ec4a659146107965780638da5cb5b146107b657806392315df7146107d457806394354fd0146107f457600080fd5b806344a0d68a116102e257806364997e0111610275578063715018a611610244578063715018a61461074357806377058ed01461075857806377097fc81461076d5780637d4fb8191461078057600080fd5b806364997e01146106d0578063698a5897146106f05780636a1a7e1e1461071057806370a082311461072357600080fd5b80635503a0e8116102b15780635503a0e81461066c5780635c975abb1461068157806362b99ad41461069b5780636352211e146106b057600080fd5b806344a0d68a146105ed5780634fdd43cb1461060d57806350ed063c1461062d578063518302271461064d57600080fd5b806316c38b3c1161035a5780633bbc52e5116103295780633bbc52e5146105685780633ccfd60b1461058b57806342842e0e146105a0578063438b6300146105c057600080fd5b806316c38b3c1461050057806318160ddd1461052057806323b872dd14610535578063377899691461055557600080fd5b8063095ea7b311610396578063095ea7b3146104785780630de0da991461049a57806313faede6146104bc57806316ba10e0146104e057600080fd5b806301ffc9a7146103c857806306fdde03146103fd57806307c3ddf81461041f578063081812fc14610440575b600080fd5b3480156103d457600080fd5b506103e86103e33660046128d9565b610ba1565b60405190151581526020015b60405180910390f35b34801561040957600080fd5b50610412610bf3565b6040516103f4919061294e565b34801561042b57600080fd5b506016546103e8906301000000900460ff1681565b34801561044c57600080fd5b5061046061045b366004612961565b610c85565b6040516001600160a01b0390911681526020016103f4565b34801561048457600080fd5b50610498610493366004612996565b610cc9565b005b3480156104a657600080fd5b506016546103e890640100000000900460ff1681565b3480156104c857600080fd5b506104d260125481565b6040519081526020016103f4565b3480156104ec57600080fd5b506104986104fb366004612a7d565b610d50565b34801561050c57600080fd5b5061049861051b366004612ac1565b610d6f565b34801561052c57600080fd5b506104d2610d8a565b34801561054157600080fd5b50610498610550366004612adc565b610d98565b610498610563366004612b18565b610da3565b34801561057457600080fd5b506016546103e89065010000000000900460ff1681565b34801561059757600080fd5b50610498611000565b3480156105ac57600080fd5b506104986105bb366004612adc565b6110fe565b3480156105cc57600080fd5b506105e06105db366004612bb5565b611119565b6040516103f49190612bd0565b3480156105f957600080fd5b50610498610608366004612961565b611259565b34801561061957600080fd5b50610498610628366004612a7d565b611266565b34801561063957600080fd5b50610498610648366004612ac1565b611281565b34801561065957600080fd5b506016546103e890610100900460ff1681565b34801561067857600080fd5b506104126112a7565b34801561068d57600080fd5b506016546103e89060ff1681565b3480156106a757600080fd5b50610412611335565b3480156106bc57600080fd5b506104606106cb366004612961565b611342565b3480156106dc57600080fd5b506104986106eb366004612bb5565b611354565b3480156106fc57600080fd5b50601a54610460906001600160a01b031681565b61049861071e366004612b18565b61137e565b34801561072f57600080fd5b506104d261073e366004612bb5565b61160c565b34801561074f57600080fd5b5061049861165a565b34801561076457600080fd5b506017546104d2565b61049861077b366004612c14565b61166e565b34801561078c57600080fd5b506104d2600a5481565b3480156107a257600080fd5b506104986107b1366004612a7d565b611776565b3480156107c257600080fd5b506008546001600160a01b0316610460565b3480156107e057600080fd5b506104986107ef366004612d67565b611791565b34801561080057600080fd5b506104d260155481565b34801561081657600080fd5b506103e8610825366004612bb5565b600d6020526000908152604090205460ff1681565b34801561084657600080fd5b506104126119e0565b34801561085b57600080fd5b506016546103e89062010000900460ff1681565b34801561087b57600080fd5b506104d260145481565b34801561089157600080fd5b506104986108a0366004612961565b6119ef565b3480156108b157600080fd5b506104986108c0366004612e4a565b6119fc565b3480156108d157600080fd5b50610412611a92565b3480156108e657600080fd5b506104986108f5366004612961565b611a9f565b34801561090657600080fd5b50610498610915366004612e7d565b611aac565b34801561092657600080fd5b50610412611af6565b34801561093b57600080fd5b5061049861094a366004612961565b611b03565b34801561095b57600080fd5b5061049861096a366004612ac1565b611b10565b34801561097b57600080fd5b5061041261098a366004612961565b611b38565b34801561099b57600080fd5b506104986109aa366004612ac1565b611caa565b3480156109bb57600080fd5b506104986109ca366004612a7d565b611cce565b3480156109db57600080fd5b506104d260135481565b3480156109f157600080fd5b506103e8610a00366004612bb5565b600b6020526000908152604090205460ff1681565b348015610a2157600080fd5b50610498610a30366004612ac1565b611ce9565b348015610a4157600080fd5b50610498610a50366004612ef8565b611d0b565b348015610a6157600080fd5b50610498610a70366004612ac1565b611d24565b348015610a8157600080fd5b50610412611d4e565b348015610a9657600080fd5b506103e8610aa5366004612f24565b6001600160a01b03918216600090815260076020908152604080832093909416825291909152205460ff1690565b348015610adf57600080fd5b506104d2610aee366004612a7d565b805160208183018101805160188252928201919093012091525481565b348015610b1757600080fd5b50610498610b26366004612961565b611d5d565b348015610b3757600080fd5b50610498610b46366004612f4e565b611d6a565b348015610b5757600080fd5b50610498610b66366004612bb5565b611df2565b348015610b7757600080fd5b50610412610b86366004612961565b611e6b565b348015610b9757600080fd5b506104d2600c5481565b60006001600160e01b031982166380ac58cd60e01b1480610bd257506001600160e01b03198216635b5e139f60e01b145b80610bed57506301ffc9a760e01b6001600160e01b03198316145b92915050565b606060028054610c0290612f71565b80601f0160208091040260200160405190810160405280929190818152602001828054610c2e90612f71565b8015610c7b5780601f10610c5057610100808354040283529160200191610c7b565b820191906000526020600020905b815481529060010190602001808311610c5e57829003601f168201915b5050505050905090565b6000610c9082611e96565b610cad576040516333d1c03960e21b815260040160405180910390fd5b506000908152600660205260409020546001600160a01b031690565b6000610cd482611342565b9050806001600160a01b0316836001600160a01b03161415610d095760405163250fdee360e21b815260040160405180910390fd5b336001600160a01b03821614610d4057610d238133610aa5565b610d40576040516367d9dca160e11b815260040160405180910390fd5b610d4b838383611ecf565b505050565b610d58611f2b565b8051610d6b90600f90602084019061282a565b5050565b610d77611f2b565b6016805460ff1916911515919091179055565b600154600054036000190190565b610d4b838383611f85565b83600081610daf610d8a565b610db99190612fc2565b9050600082118015610dcd57506015548211155b610df25760405162461bcd60e51b8152600401610de990612fda565b60405180910390fd5b6013548111158015610e0657506014548111155b610e225760405162461bcd60e51b8152600401610de99061300f565b6016546301000000900460ff16610e7b5760405162461bcd60e51b815260206004820152601f60248201527f5468652046726565204d696e742073616c65206973206e6f74206f70656e21006044820152606401610de9565b336000908152600d602052604090205460ff1615610ef75760405162461bcd60e51b815260206004820152603360248201527f596f757220616464726573732068617320616c726561647920636c61696d6564604482015272206974732046726565204c697374204e46542160681b6064820152608401610de9565b6040516bffffffffffffffffffffffff193360601b166020820152600090603401604051602081830303815290604052805190602001209050610f7185858080602002602001604051908101604052809392919081815260200183836020028082843760009201919091525050600c549150849050612170565b610fc95760405162461bcd60e51b815260206004820152602360248201527f5468697320697320616e20696e76616c69642046726565204c6973742070726f6044820152626f662160e81b6064820152608401610de9565b336000818152600d60205260409020805460ff19166001179055610fed9088612186565b610ff786346121a0565b50505050505050565b611008611f2b565b6002600954141561105b5760405162461bcd60e51b815260206004820152601f60248201527f5265656e7472616e637947756172643a207265656e7472616e742063616c6c006044820152606401610de9565b6002600955601a546040516000916001600160a01b03169047908381818185875af1925050503d80600081146110ad576040519150601f19603f3d011682016040523d82523d6000602084013e6110b2565b606091505b50509050806110f65760405162461bcd60e51b815260206004820152601060248201526f5769746864726177204661696c65642160801b6044820152606401610de9565b506001600955565b610d4b83838360405180602001604052806000815250611aac565b606060006111268361160c565b90506000816001600160401b03811115611142576111426129c0565b60405190808252806020026020018201604052801561116b578160200160208202803683370190505b50905060016000805b8482108015611184575060005483105b1561124e57600083815260046020908152604091829020825160608101845290546001600160a01b0381168252600160a01b81046001600160401b031692820192909252600160e01b90910460ff1615159181018290529061123b5780516001600160a01b0316156111f557805191505b876001600160a01b0316826001600160a01b0316141561123b57838584815181106112225761122261307b565b60209081029190910101528261123781613091565b9350505b8361124581613091565b94505050611174565b509195945050505050565b611261611f2b565b601255565b61126e611f2b565b8051610d6b90601090602084019061282a565b611289611f2b565b6016805491151563010000000263ff00000019909216919091179055565b600f80546112b490612f71565b80601f01602080910402602001604051908101604052809291908181526020018280546112e090612f71565b801561132d5780601f106113025761010080835404028352916020019161132d565b820191906000526020600020905b81548152906001019060200180831161131057829003601f168201915b505050505081565b600e80546112b490612f71565b600061134d82612275565b5192915050565b61135c611f2b565b601a80546001600160a01b0319166001600160a01b0392909216919091179055565b8360008161138a610d8a565b6113949190612fc2565b90506000821180156113a857506015548211155b6113c45760405162461bcd60e51b8152600401610de990612fda565b60135481111580156113d857506014548111155b6113f45760405162461bcd60e51b8152600401610de99061300f565b858060125461140391906130ac565b3410156114225760405162461bcd60e51b8152600401610de9906130cb565b601654640100000000900460ff166114865760405162461bcd60e51b815260206004820152602160248201527f54686520476f6c64204c6973742073616c65206973206e6f74206163746976656044820152602160f81b6064820152608401610de9565b336000908152600b602052604090205460ff16156115025760405162461bcd60e51b815260206004820152603360248201527f596f757220616464726573732068617320616c726561647920636c61696d65646044820152722069747320476f6c64204c697374204e46542160681b6064820152608401610de9565b6040516bffffffffffffffffffffffff193360601b16602082015260009060340160405160208183030381529060405280519060200120905061157c86868080602002602001604051908101604052809392919081815260200183836020028082843760009201919091525050600a549150849050612170565b6115d45760405162461bcd60e51b815260206004820152602360248201527f5468697320697320616e20696e76616c696420476f6c64204c6973742070726f6044820152626f662160e81b6064820152608401610de9565b336000818152600b60205260409020805460ff191660011790556115f89089612186565b61160287346121a0565b5050505050505050565b60006001600160a01b038216611635576040516323d3ad8160e21b815260040160405180910390fd5b506001600160a01b03166000908152600560205260409020546001600160401b031690565b611662611f2b565b61166c6000612397565b565b8160008161167a610d8a565b6116849190612fc2565b905060008211801561169857506015548211155b6116b45760405162461bcd60e51b8152600401610de990612fda565b60135481111580156116c857506014548111155b6116e45760405162461bcd60e51b8152600401610de99061300f565b83806012546116f391906130ac565b3410156117125760405162461bcd60e51b8152600401610de9906130cb565b60165460ff161561175b5760405162461bcd60e51b81526020600482015260136024820152725468652073616c65206973207061757365642160681b6044820152606401610de9565b6117653386612186565b61176f84346121a0565b5050505050565b61177e611f2b565b8051610d6b90600e90602084019061282a565b611799611f2b565b60165460ff16156117e25760405162461bcd60e51b81526020600482015260136024820152725468652073616c65206973207061757365642160681b6044820152606401610de9565b81518351146118595760405162461bcd60e51b815260206004820152603760248201527f416464726573732c20416d6f756e7420616e642050726f6d6f436f6465206c6960448201527f7374206c656e6774687320646f206e6f74206d617463680000000000000000006064820152608401610de9565b6000611863610d8a565b905060005b84518110156118aa578381815181106118835761188361307b565b6020026020010151826118969190612fc2565b9150806118a281613091565b915050611868565b5060135481111580156118bf57506014548111155b61193d5760405162461bcd60e51b815260206004820152604360248201527f54686973206261746368206578636565647320746865206d6178696d756d206e60448201527f756d626572206f66204e46545320616c6c6f77656420666f7220746869732073606482015262616c6560e81b608482015260a401610de9565b60005b845181101561176f5761198585828151811061195e5761195e61307b565b60200260200101518583815181106119785761197861307b565b6020026020010151612186565b6119ce83828151811061199a5761199a61307b565b60200260200101516012548684815181106119b7576119b761307b565b60200260200101516119c991906130ac565b6121a0565b806119d881613091565b915050611940565b606060038054610c0290612f71565b6119f7611f2b565b601455565b6001600160a01b038216331415611a265760405163b06307db60e01b815260040160405180910390fd5b3360008181526007602090815260408083206001600160a01b03871680855290835292819020805460ff191686151590811790915590519081529192917f17307eab39ab6107e8899845ad3d59bd9653f200f220920489ca2b5937696c31910160405180910390a35050565b601080546112b490612f71565b611aa7611f2b565b601555565b611ab7848484611f85565b6001600160a01b0383163b15611af057611ad3848484846123e9565b611af0576040516368d2bf6b60e11b815260040160405180910390fd5b50505050565b601180546112b490612f71565b611b0b611f2b565b600c55565b611b18611f2b565b601680549115156401000000000264ff0000000019909216919091179055565b6060611b4382611e96565b611baa5760405162461bcd60e51b815260206004820152603260248201527f4552433732314d657461646174613a2074686520746f6b656e207370656369666044820152711a595908191bd95cc81b9bdd08195e1a5cdd60721b6064820152608401610de9565b601654610100900460ff16611c4b5760108054611bc690612f71565b80601f0160208091040260200160405190810160405280929190818152602001828054611bf290612f71565b8015611c3f5780601f10611c1457610100808354040283529160200191611c3f565b820191906000526020600020905b815481529060010190602001808311611c2257829003601f168201915b50505050509050919050565b6000611c556124e1565b90506000815111611c755760405180602001604052806000815250611ca3565b80611c7f846124f0565b600f604051602001611c9393929190613120565b6040516020818303038152906040525b9392505050565b611cb2611f2b565b60168054911515620100000262ff000019909216919091179055565b611cd6611f2b565b8051610d6b90601190602084019061282a565b611cf1611f2b565b601680549115156101000261ff0019909216919091179055565b611d13611f2b565b601292909255601491909155601555565b611d2c611f2b565b60168054911515650100000000000265ff000000000019909216919091179055565b606060118054610c0290612f71565b611d65611f2b565b600a55565b81600081611d76610d8a565b611d809190612fc2565b9050600082118015611d9457506015548211155b611db05760405162461bcd60e51b8152600401610de990612fda565b6013548111158015611dc457506014548111155b611de05760405162461bcd60e51b8152600401610de99061300f565b611de8611f2b565b611af08385612186565b611dfa611f2b565b6001600160a01b038116611e5f5760405162461bcd60e51b815260206004820152602660248201527f4f776e61626c653a206e6577206f776e657220697320746865207a65726f206160448201526564647265737360d01b6064820152608401610de9565b611e6881612397565b50565b60178181548110611e7b57600080fd5b9060005260206000200160009150905080546112b490612f71565b600081600111158015611eaa575060005482105b8015610bed575050600090815260046020526040902054600160e01b900460ff161590565b60008281526006602052604080822080546001600160a01b0319166001600160a01b0387811691821790925591518593918516917f8c5be1e5ebec7d5bd14f71427d1e84f3dd0314c0f7b2291e5b200ac8c7c3b92591a4505050565b6008546001600160a01b0316331461166c5760405162461bcd60e51b815260206004820181905260248201527f4f776e61626c653a2063616c6c6572206973206e6f7420746865206f776e65726044820152606401610de9565b6000611f9082612275565b9050836001600160a01b031681600001516001600160a01b031614611fc75760405162a1148160e81b815260040160405180910390fd5b6000336001600160a01b0386161480611fe55750611fe58533610aa5565b80612000575033611ff584610c85565b6001600160a01b0316145b90508061202057604051632ce44b5f60e11b815260040160405180910390fd5b6001600160a01b03841661204757604051633a954ecd60e21b815260040160405180910390fd5b61205360008487611ecf565b6001600160a01b038581166000908152600560209081526040808320805467ffffffffffffffff198082166001600160401b0392831660001901831617909255898616808652838620805493841693831660019081018416949094179055898652600490945282852080546001600160e01b031916909417600160a01b4290921691909102178355870180845292208054919390911661212757600054821461212757805460208601516001600160401b0316600160a01b026001600160e01b03199091166001600160a01b038a16171781555b50505082846001600160a01b0316866001600160a01b03167fddf252ad1be2c89b69c2b068fc378daa952ba7f163c4a11628f55a4df523b3ef60405160405180910390a461176f565b60008261217d85846125ed565b14949350505050565b610d6b82826040518060200160405280600081525061263a565b6019826040516121b091906131e4565b9081526040519081900360200190205460ff1661223e5760178054600181018255600091909152825161220a917fc624b66cc0138b8fabc209247f72d758e1cf3343756d543badbf24212bed8c150190602085019061282a565b50600160198360405161221d91906131e4565b908152604051908190036020019020805491151560ff199092169190911790555b8060188360405161224f91906131e4565b9081526020016040518091039020600082825461226c9190612fc2565b90915550505050565b6040805160608101825260008082526020820181905291810191909152818060011161237e5760005481101561237e57600081815260046020908152604091829020825160608101845290546001600160a01b0381168252600160a01b81046001600160401b031692820192909252600160e01b90910460ff1615159181018290529061237c5780516001600160a01b031615612313579392505050565b5060001901600081815260046020908152604091829020825160608101845290546001600160a01b038116808352600160a01b82046001600160401b031693830193909352600160e01b900460ff1615159281019290925215612377579392505050565b612313565b505b604051636f96cda160e11b815260040160405180910390fd5b600880546001600160a01b038381166001600160a01b0319831681179093556040519116919082907f8be0079c531659141344cd1fd0a4f28419497f9722a3daafe3b4186f6b6457e090600090a35050565b604051630a85bd0160e11b81526000906001600160a01b0385169063150b7a029061241e903390899088908890600401613200565b602060405180830381600087803b15801561243857600080fd5b505af1925050508015612468575060408051601f3d908101601f191682019092526124659181019061323d565b60015b6124c3573d808015612496576040519150601f19603f3d011682016040523d82523d6000602084013e61249b565b606091505b5080516124bb576040516368d2bf6b60e11b815260040160405180910390fd5b805181602001fd5b6001600160e01b031916630a85bd0160e11b1490505b949350505050565b6060600e8054610c0290612f71565b6060816125145750506040805180820190915260018152600360fc1b602082015290565b8160005b811561253e578061252881613091565b91506125379050600a83613270565b9150612518565b6000816001600160401b03811115612558576125586129c0565b6040519080825280601f01601f191660200182016040528015612582576020820181803683370190505b5090505b84156124d957612597600183613284565b91506125a4600a8661329b565b6125af906030612fc2565b60f81b8183815181106125c4576125c461307b565b60200101906001600160f81b031916908160001a9053506125e6600a86613270565b9450612586565b600081815b84518110156126325761261e828683815181106126115761261161307b565b60200260200101516127fe565b91508061262a81613091565b9150506125f2565b509392505050565b6000546001600160a01b03841661266357604051622e076360e81b815260040160405180910390fd5b826126815760405163b562e8dd60e01b815260040160405180910390fd5b6001600160a01b038416600081815260056020908152604080832080546fffffffffffffffffffffffffffffffff1981166001600160401b038083168b0181169182176801000000000000000067ffffffffffffffff1990941690921783900481168b01811690920217909155858452600490925290912080546001600160e01b0319168317600160a01b42909316929092029190911790558190818501903b156127a9575b60405182906001600160a01b038816906000907fddf252ad1be2c89b69c2b068fc378daa952ba7f163c4a11628f55a4df523b3ef908290a461277260008784806001019550876123e9565b61278f576040516368d2bf6b60e11b815260040160405180910390fd5b8082106127275782600054146127a457600080fd5b6127ee565b5b6040516001830192906001600160a01b038816906000907fddf252ad1be2c89b69c2b068fc378daa952ba7f163c4a11628f55a4df523b3ef908290a48082106127aa575b506000908155611af09085838684565b600081831061281a576000828152602084905260409020611ca3565b5060009182526020526040902090565b82805461283690612f71565b90600052602060002090601f016020900481019282612858576000855561289e565b82601f1061287157805160ff191683800117855561289e565b8280016001018555821561289e579182015b8281111561289e578251825591602001919060010190612883565b506128aa9291506128ae565b5090565b5b808211156128aa57600081556001016128af565b6001600160e01b031981168114611e6857600080fd5b6000602082840312156128eb57600080fd5b8135611ca3816128c3565b60005b838110156129115781810151838201526020016128f9565b83811115611af05750506000910152565b6000815180845261293a8160208601602086016128f6565b601f01601f19169290920160200192915050565b602081526000611ca36020830184612922565b60006020828403121561297357600080fd5b5035919050565b80356001600160a01b038116811461299157600080fd5b919050565b600080604083850312156129a957600080fd5b6129b28361297a565b946020939093013593505050565b634e487b7160e01b600052604160045260246000fd5b604051601f8201601f191681016001600160401b03811182821017156129fe576129fe6129c0565b604052919050565b60006001600160401b03831115612a1f57612a1f6129c0565b612a32601f8401601f19166020016129d6565b9050828152838383011115612a4657600080fd5b828260208301376000602084830101529392505050565b600082601f830112612a6e57600080fd5b611ca383833560208501612a06565b600060208284031215612a8f57600080fd5b81356001600160401b03811115612aa557600080fd5b6124d984828501612a5d565b8035801515811461299157600080fd5b600060208284031215612ad357600080fd5b611ca382612ab1565b600080600060608486031215612af157600080fd5b612afa8461297a565b9250612b086020850161297a565b9150604084013590509250925092565b60008060008060608587031215612b2e57600080fd5b8435935060208501356001600160401b0380821115612b4c57600080fd5b612b5888838901612a5d565b94506040870135915080821115612b6e57600080fd5b818701915087601f830112612b8257600080fd5b813581811115612b9157600080fd5b8860208260051b8501011115612ba657600080fd5b95989497505060200194505050565b600060208284031215612bc757600080fd5b611ca38261297a565b6020808252825182820181905260009190848201906040850190845b81811015612c0857835183529284019291840191600101612bec565b50909695505050505050565b60008060408385031215612c2757600080fd5b8235915060208301356001600160401b03811115612c4457600080fd5b612c5085828601612a5d565b9150509250929050565b60006001600160401b03821115612c7357612c736129c0565b5060051b60200190565b600082601f830112612c8e57600080fd5b81356020612ca3612c9e83612c5a565b6129d6565b82815260059290921b84018101918181019086841115612cc257600080fd5b8286015b84811015612cdd5780358352918301918301612cc6565b509695505050505050565b600082601f830112612cf957600080fd5b81356020612d09612c9e83612c5a565b82815260059290921b84018101918181019086841115612d2857600080fd5b8286015b84811015612cdd5780356001600160401b03811115612d4b5760008081fd5b612d598986838b0101612a5d565b845250918301918301612d2c565b600080600060608486031215612d7c57600080fd5b83356001600160401b0380821115612d9357600080fd5b818601915086601f830112612da757600080fd5b81356020612db7612c9e83612c5a565b82815260059290921b8401810191818101908a841115612dd657600080fd5b948201945b83861015612dfb57612dec8661297a565b82529482019490820190612ddb565b97505087013592505080821115612e1157600080fd5b612e1d87838801612c7d565b93506040860135915080821115612e3357600080fd5b50612e4086828701612ce8565b9150509250925092565b60008060408385031215612e5d57600080fd5b612e668361297a565b9150612e7460208401612ab1565b90509250929050565b60008060008060808587031215612e9357600080fd5b612e9c8561297a565b9350612eaa6020860161297a565b92506040850135915060608501356001600160401b03811115612ecc57600080fd5b8501601f81018713612edd57600080fd5b612eec87823560208401612a06565b91505092959194509250565b600080600060608486031215612f0d57600080fd5b505081359360208301359350604090920135919050565b60008060408385031215612f3757600080fd5b612f408361297a565b9150612e746020840161297a565b60008060408385031215612f6157600080fd5b82359150612e746020840161297a565b600181811c90821680612f8557607f821691505b60208210811415612fa657634e487b7160e01b600052602260045260246000fd5b50919050565b634e487b7160e01b600052601160045260246000fd5b60008219821115612fd557612fd5612fac565b500190565b6020808252818101527f596f752063616e206e6f74206d696e742074686973206d616e79206974656d73604082015260600190565b60208082526046908201527f54686973207075726368617365206578636565647320746865206d6178696d7560408201527f6d206e756d626572206f66204e46545320616c6c6f77656420666f7220746869606082015265732073616c6560d01b608082015260a00190565b634e487b7160e01b600052603260045260246000fd5b60006000198214156130a5576130a5612fac565b5060010190565b60008160001904831182151516156130c6576130c6612fac565b500290565b60208082526035908201527f596f7520646964206e6f742073656e6420656e6f7567682045544820746f20636040820152746f6d706c657465207468697320707572636861736560581b606082015260800190565b6000845160206131338285838a016128f6565b8551918401916131468184848a016128f6565b8554920191600090600181811c908083168061316357607f831692505b85831081141561318157634e487b7160e01b85526022600452602485fd5b80801561319557600181146131a6576131d3565b60ff198516885283880195506131d3565b60008b81526020902060005b858110156131cb5781548a8201529084019088016131b2565b505083880195505b50939b9a5050505050505050505050565b600082516131f68184602087016128f6565b9190910192915050565b6001600160a01b038581168252841660208201526040810183905260806060820181905260009061323390830184612922565b9695505050505050565b60006020828403121561324f57600080fd5b8151611ca3816128c3565b634e487b7160e01b600052601260045260246000fd5b60008261327f5761327f61325a565b500490565b60008282101561329657613296612fac565b500390565b6000826132aa576132aa61325a565b50069056fea2646970667358221220f3bc5be2d3ea6a8c7f1612062a1010a42e33fdbbe52a5b61ad98e79dc1a0589264736f6c63430008090033",
  "linkReferences": {},
  "deployedLinkReferences": {}
}